:020000040800F2
:10000000781C002401001008E17600082968100817
:1000100099740008F9011008F99700080000000021
:10002000000000000000000000000000917B1008AC
:10003000A10510080000000069770008E9840008A5
:100040001B0010081B0010081B0010081B001008E4
:100050001B0010081B0010081B0010081B001008D4
:100060001B0010081B0010081B001008D10400081A
:10007000E104000801021008F10400081102100850
:1000800001050008210210081B001008A90C000837
:10009000210610081B0010081B0010081B00100888
:1000A0001B0010081B0010081B001008A187000887
:1000B0001B0010081B0010081B0010081B00100874
:1000C0001B0010081B0010081B0010081B00100864
:1000D0001B001008F19100081B0010081192000885
:1000E0001B0010081B00100800000000197F1008FA
:1000F0001B0010081B0010081B0010081105000849
:100100001B0010081B0010081B0010081B00100823
:10011000A1861008298F0008097F10081B0010080D
:1001200021050008310210081B0010081B001008F0
:100130001B0010081B0010081B0010081B001008F3
:1001400000000000000000000000000000000000AF
:100150001B0010081B0010081B0010081B001008D3
:100160001B0010081B0010081B0010081B001008C3
:100170001B0010081B0010081B00100800000000E6
:100180001B0010081B001008C18610081B00100877
:100190001B0010081B0010081B0010081B00100893
:1001A0001B0010081B0010081B0010081B00100883
:1001B0001B0010081B0010081B0010081B00100873
:1001C0001B0010081B0010081B0010081B00100863
:1001D0001B0010081B0010081B0010081B00100853
:1001E0001B0010081B0010081B0010081B00100843
:1001F0001B0010081B0010081B0010081B00100833
:100200001B0010081B0010081B0010081B00100822
:100210001B0010081B0010081B0010081B00100812
:100220001B0010081B0010081B0010080000000035
:100230001B0010081B001008000000001B00100825
:100240001B0010081B0010081B0010081B001008E2
:100250001B0010081B0010081B0010081B001008D2
:100260001B0010081B0010081B0010081B001008C2
:100270001B0010081B0010081B00100800000000E5
:100280001B0010081B0010081B00100800000000D5
:10029000000000001B001008DFF80CD000F0E2F8AE
:1002A00000480047F19D1008781C002440EA010333
:1002B0009B0703D009E008C9121F08C0042AFAD21C
:1002C00003E011F8013B00F8013B521EF9D27047E0
:1002D0002DE9F04D81EA030404F0004B21F00045C4
:1002E00014464FF0000A23F0004150EA050220D0E6
:1002F00054EA01021DD0C5F30A570246C5F31303A1
:10030000C1F31300C1F30A5640F4801543F480137F
:10031000A7EB0608101BD64608F2FD3873EB050064
:1003200002D308F1010801E092185B41B8F1000F17
:1003300003DA00200146BDE8F08D00204FF4801163
:10034000064684460EE0171B73EB050705D3121B08
:1003500063EB050306434CEA010C49084FEA300001
:1003600092185B4150EA0107EDD152EA030012D026
:1003700082EA040083EA0501084305D0101BAB4163
:1003800006D20122002306E000224FF0004302E0E3
:100390006FF0010253101AEB06004CEB085110EB02
:1003A0000A0041EB0B01BDE8F04DFFF0A9BE00F0E3
:1003B000004230F000400AD0C10D01F56071C0F379
:1003C000160042EA0151C20840071143704700205D
:1003D00001467047202A04DB203A21FA02F000216E
:1003E000704721FA02F3D040C2F120029140084345
:1003F000194670470029A8BF7047401C490008BF34
:1004000020F00100704710B4B0FA80FC00FA0CF044
:1004100050EA010404BF10BC704749B1CCF120047C
:1004200021FA04F411FA0CF118BF01212143084309
:10043000A3EB0C01CB1D4FEA00614FEA102042BF35
:10044000002010BC704700EBC35010440029A4BF2B
:1004500010BC7047401C490008BF20F0010010BCD0
:1004600070470000064C074D06E0E06840F00103CD
:1004700094E8070098471034AC42F6D3FFF710FF1A
:100480005CA500087CA5000880B582B041F28C60B4
:10049000C2F2004001680A6842F010020A6040F2AD
:1004A000C011C2F20041322205F0B6FE40F6004112
:1004B000C5F6020110224FF0000E019008461146C9
:1004C000724602F1D9FB02B080BD000000000000BE
:1004D00080B540F6E050C2F2004000F18DFE80BDD4
:1004E00080B540F65860C2F2004000F185FE80BD44
:1004F00080B540F64870C2F2004000F17DFE80BD3C
:1005000080B541F2A010C2F2004000F175FE80BD3E
:1005100080B540F6C070C2F2004000F16DFE80BDB3
:1005200080B541F23800C2F2004000F165FE80BDA6
:1005300084B0014603900398007902900298002845
:10054000019100F08C80FFE70298082800F2878074
:10055000FFE703980068012145F20842C5F6020250
:10056000904200914ED0FFE703980068012145F2C8
:100570001C42C5F602029042009143D0FFE7039867
:100580000068012145F23042C5F602029042009116
:1005900038D0FFE703980068012145F24442C5F6D0
:1005A0000202904200912DD0FFE7039800680121DC
:1005B00045F25842C5F602029042009122D0FFE770
:1005C00003980068012145F26C42C5F60202904290
:1005D000009117D0FFE703980068012145F280429F
:1005E000C5F60202904200910CD0FFE70398006824
:1005F0004AF66C31CAF2FD710844B0FA80F0400945
:100600000090FFE70098C007002810D0FFE702988D
:1006100045F6FC01C5F6020101EB80000399C866AE
:10062000039845F64011C5F6020101670FE00298F4
:1006300040F6FC01C4F2020101EB80000399C86698
:10064000039840F64011C4F202010167FFE70298E7
:100650000138012101FA00F003994867FFE704B06F
:10066000704700000000000086B0014605900020A1
:100670008DF81300059880690028039123D1FFE7C6
:100680000598806A032802901BD80299DFE801F0E0
:10069000020D02180598C06AC001002804D5FFE7C2
:1006A00001208DF81300FFE70CE00598C06AB0F157
:1006B000C07F04D1FFE701208DF81300FFE701E0C0
:1006C00000E0FFE747E005988069B0F5005F26D1BC
:1006D000FFE70598806A032801901ED80199DFE89A
:1006E00001F00206021101208DF8130016E00598B2
:1006F000C06AC001002804D5FFE701208DF813006F
:10070000FFE70BE00598C06AB0F1C07F04D1FFE7B6
:1007100001208DF81300FFE700E0FFE71AE00598DD
:10072000806A0328009004D3FFE70098032804D0D0
:100730000EE001208DF813000BE00598C06AC0019F
:10074000002804D5FFE701208DF81300FFE700E043
:10075000FFE7FFE7FFE79DF8130006B070470000D2
:10076000B0B58DB09C4696460C4605460C900B9154
:100770000A9209930C98806D08900C98806D0790F0
:100780000C98006801211022C4F202029042CDF8B8
:1007900018C0CDF814E004940395029100F0038191
:1007A000FFE70C98006801212822C4F2020290425F
:1007B000029100F0F880FFE70C98006801214022C8
:1007C000C4F202029042029100F0ED80FFE70C9823
:1007D000006801215822C4F202029042029100F006
:1007E000E280FFE70C98006801217022C4F2020247
:1007F0009042029100F0D780FFE70C980068012139
:100800008822C4F202029042029100F0CC80FFE7FD
:100810000C9800680121A022C4F2020290420291C9
:1008200000F0C180FFE70C9800680121B822C4F2F3
:1008300002029042029100F0B680FFE70C98006837
:10084000012140F21042C4F202029042029100F0F3
:10085000AA80FFE70C980068012140F22842C4F208
:1008600002029042029100F09E80FFE70C9800681F
:10087000012140F24042C4F202029042029100F093
:100880009280FFE70C980068012140F25842C4F2C0
:1008900002029042029100F08680FFE70C98006807
:1008A000012140F27042C4F20202904202917AD0D9
:1008B000FFE70C980068012140F28842C4F202026E
:1008C000904202916FD0FFE70C980068012140F23E
:1008D000A042C4F202029042029164D0FFE70C9859
:1008E0000068012140F2B842C4F202029042029133
:1008F00059D0FFE70C980068012145F20842C5F67F
:100900000202904202914ED0FFE70C98006801214C
:1009100045F21C42C5F602029042029143D0FFE725
:100920000C980068012145F23042C5F6020290425F
:10093000029138D0FFE70C980068012145F244424B
:10094000C5F60202904202912DD0FFE70C98006894
:10095000012145F25842C5F602029042029122D08E
:10096000FFE70C980068012145F26C42C5F60202CF
:100970009042029117D0FFE70C980068012145F2E0
:100980008042C5F60202904202910CD0FFE70C981B
:1009900000684AF66C31CAF2FD710844B0FA80F082
:1009A00040090290FFE70298C00700280FD0FFE738
:1009B0000C98416E806E48600C98C06E002805D07F
:1009C000FFE70C98016F406F4860FFE7FFE70C9866
:1009D000006801211022C4F202029042019100F04D
:1009E000A380FFE70C98006801212822C4F20202CC
:1009F0009042019100F09880FFE70C980068012177
:100A00004022C4F202029042019100F08D80FFE783
:100A10000C98006801215822C4F202029042019110
:100A200000F08280FFE70C98006801217022C4F278
:100A300002029042019177D0FFE70C9800680121F3
:100A40008822C4F20202904201916DD0FFE70C9817
:100A500000680121A022C4F202029042019163D0F9
:100A6000FFE70C9800680121B822C4F2020290420C
:100A7000019159D0FFE70C980068012140F2104223
:100A8000C4F20202904201914ED0FFE70C98006838
:100A9000012140F22842C4F202029042019143D067
:100AA000FFE70C980068012140F24042C4F20202C4
:100AB0009042019138D0FFE70C980068012140F284
:100AC0005842C4F20202904201912DD0FFE70C98E7
:100AD0000068012140F27042C4F20202904201918A
:100AE00022D0FFE70C980068012140F28842C4F24E
:100AF00002029042019117D0FFE70C980068012193
:100B000040F2A042C4F20202904201910CD0FFE7F1
:100B10000C9800684FF64831CBF6FD710844B0FAE6
:100B200080F040090190FFE70198C00700282BD012
:100B3000FFE70C98C06D00F01F003F2101FA00F0A4
:100B4000089988600C980068016821F48021016090
:100B500009980C99096848600C988068402809D168
:100B6000FFE70A980C99096888600B980C99096846
:100B7000C86008E00B980C99096888600A980C997D
:100B80000968C860FFE784E00C980068012145F21D
:100B90000842C5F60202904200914ED0FFE70C9841
:100BA0000068012145F21C42C5F602029042009104
:100BB00043D0FFE70C980068012145F23042C5F6AA
:100BC00002029042009138D0FFE70C9800680121A2
:100BD00045F24442C5F60202904200912DD0FFE753
:100BE0000C980068012145F25842C5F60202904275
:100BF000009122D0FFE70C980068012145F26C4279
:100C0000C5F602029042009117D0FFE70C980068E9
:100C1000012145F28042C5F60202904200910CD0BB
:100C2000FFE70C9800684AF66C31CAF2FD7108447F
:100C3000B0FA80F040090090FFE70098C007002854
:100C400025D0FFE70C98C06D00F01F00012101FACC
:100C500000F00799486009980C99096848600C9859
:100C60008068402809D1FFE70A980C9909688860D4
:100C70000B980C990968C86008E00B980C990968F2
:100C800088600A980C990968C860FFE700E0FFE7F0
:100C9000FFE70DB0B0BD000081B0EFF3108072B679
:100CA0000090FFE7FEE7000080B541F21820C2F295
:100CB000004002F0A9F880BDB0B58CB09C469646C5
:100CC0000C4605460B900A91099208930A984068D1
:100CD0000028CDF80CC0CDF808E00194009509D1AA
:100CE000FFE70A98016882680069104340EA814082
:100CF000079009E00A980168826800691043084378
:100D000040F080400790FFE70A98016AC268436993
:100D1000D0F818C0C06940EA016040EA0C001843EE
:100D2000104306900B98816ED0F88400089A5143C6
:100D300000EB81000590079805990860059804303C
:100D400005900698059908600598043005900020E4
:100D50000490FFE704980A99C98949F66442C0F6ED
:100D60000002515C88420DD2FFE70998049940586F
:100D700005990860059804300590FFE70498043051
:100D80000490E7E70CB0B0BD80B58EB001460C9082
:100D9000079102F0E1FD08900C98002805D1FFE7CB
:100DA00001208DF8370000F0B8BC0C9890F83500A1
:100DB00002280ED0FFE70C9880214165FFE70C98D0
:100DC000002180F83410FFE701208DF8370000F093
:100DD000A4BC0C98006801211022C4F202029042C7
:100DE000069100F0A380FFE70C98006801212822FB
:100DF000C4F202029042069100F09880FFE70C983E
:100E0000006801214022C4F202029042069100F0E3
:100E10008D80FFE70C98006801215822C4F202027D
:100E20009042069100F08280FFE70C980068012153
:100E30007022C4F202029042069177D0FFE70C982C
:100E4000006801218822C4F20202904206916DD00E
:100E5000FFE70C9800680121A022C4F20202904230
:100E6000069163D0FFE70C9800680121B822C4F214
:100E700002029042069159D0FFE70C9800680121C8
:100E800040F21042C4F20202904206914ED0FFE7B7
:100E90000C980068012140F22842C4F202029042FC
:100EA000069143D0FFE70C980068012140F24042D0
:100EB000C4F202029042069138D0FFE70C98006815
:100EC000012140F25842C4F20202904206912DD014
:100ED000FFE70C980068012140F27042C4F2020260
:100EE0009042069122D0FFE70C980068012140F261
:100EF0008842C4F202029042069117D0FFE70C9894
:100F00000068012140F2A042C4F202029042069120
:100F10000CD0FFE70C9800684FF64831CBF6FD7116
:100F20000844B0FA80F040090690FFE70698C00731
:100F3000002810D0FFE70C980068016821F01E011E
:100F400001600C980068416921F0800141610C98B2
:100F50000068099009E00C980068016821F00E0112
:100F600001600C9800680990FFE70C980068012167
:100F70001022C4F202029042059100F00381FFE7C3
:100F80000C98006801212822C4F2020290420591C7
:100F900000F0F880FFE70C98006801214022C4F2BD
:100FA00002029042059100F0ED80FFE70C98006886
:100FB00001215822C4F202029042059100F0E28021
:100FC000FFE70C98006801217022C4F202029042EF
:100FD000059100F0D780FFE70C9800680121882276
:100FE000C4F202029042059100F0CC80FFE70C9819
:100FF00000680121A022C4F202029042059100F093
:10100000C180FFE70C9800680121B822C4F20202F7
:101010009042059100F0B680FFE70C98006801212E
:1010200040F21042C4F202029042059100F0AA8000
:10103000FFE70C980068012140F22842C4F2020246
:101040009042059100F09E80FFE70C980068012116
:1010500040F24042C4F202029042059100F09280B8
:10106000FFE70C980068012140F25842C4F20202E6
:101070009042059100F08680FFE70C9800680121FE
:1010800040F27042C4F20202904205917AD0FFE72A
:101090000C980068012140F28842C4F2020290429A
:1010A00005916FD0FFE70C980068012140F2A04243
:1010B000C4F202029042059164D0FFE70C980068E8
:1010C000012140F2B842C4F202029042059159D087
:1010D000FFE70C980068012145F20842C5F60202BC
:1010E000904205914ED0FFE70C980068012145F22F
:1010F0001C42C5F602029042059143D0FFE70C98CE
:101100000068012145F23042C5F602029042059185
:1011100038D0FFE70C980068012145F24442C5F63B
:101120000202904205912DD0FFE70C980068012142
:1011300045F25842C5F602029042059122D0FFE7DF
:101140000C980068012145F26C42C5F602029042FB
:10115000059117D0FFE70C980068012145F2804205
:10116000C5F60202904205910CD0FFE70C9800688A
:101170004AF66C31CAF2FD710844B0FA80F04009B9
:101180000590FFE70598C007002807D0FFE70C98F7
:10119000006E016821F480710160FFE70C9800681F
:1011A0001021C4F20201884200F08180FFE70C9810
:1011B00000682821C4F20201884278D0FFE70C9829
:1011C00000684021C4F20201884270D0FFE70C9809
:1011D00000685821C4F20201884268D0FFE70C98E9
:1011E00000687021C4F20201884260D0FFE70C98C9
:1011F00000688821C4F20201884258D0FFE70C98A9
:101200000068A021C4F20201884250D0FFE70C9888
:101210000068B821C4F20201884248D0FFE70C9868
:10122000006840F21041C4F2020188423FD0FFE75B
:101230000C98006840F22841C4F20201884236D07E
:10124000FFE70C98006840F24041C4F20201884276
:101250002DD0FFE70C98006840F25841C4F202011B
:10126000884224D0FFE70C98006840F27041C4F235
:10127000020188421BD0FFE70C98006840F28841C9
:10128000C4F20201884212D0FFE70C98006840F2D5
:10129000A041C4F20201884209D0FFE70C9800681F
:1012A00040F2B841C4F20201884209D1FFE70C982C
:1012B0000068016821F001010A460160049208E01B
:1012C0000C980068016821F001010A460160039250
:1012D000FFE7FFE70998006810F0010F1BD0FFE758
:1012E00002F03AFBDDF820E0A0EB0E00062811D357
:1012F000FFE70C9820214165FFE70C98002180F85A
:101300003410FFE70C98032180F8351001208DF888
:10131000370002E2DEE70C98006801211022C4F2D7
:1013200002029042029100F0A380FFE70C9800684F
:1013300001212822C4F202029042029100F098801A
:10134000FFE70C98006801214022C4F2020290429B
:10135000029100F08D80FFE70C980068012158226F
:10136000C4F202029042029100F08280FFE70C98E2
:10137000006801217022C4F202029042029177D0EB
:10138000FFE70C98006801218822C4F20202904213
:1013900002916DD0FFE70C9800680121A022C4F2F1
:1013A00002029042029163D0FFE70C98006801218D
:1013B000B822C4F202029042029159D0FFE70C9881
:1013C0000068012140F21042C4F2020290420291F0
:1013D0004ED0FFE70C980068012140F22842C4F289
:1013E00002029042029143D0FFE70C98006801216D
:1013F00040F24042C4F202029042029138D0FFE72C
:101400000C980068012140F25842C4F20202904256
:1014100002912DD0FFE70C980068012140F2704244
:10142000C4F202029042029122D0FFE70C980068B9
:10143000012140F28842C4F202029042029117D088
:10144000FFE70C980068012140F2A042C4F20202BA
:10145000904202910CD0FFE70C9800684FF648319B
:10146000CBF6FD710844B0FA80F040090290FFE726
:101470000298C00700280DD0FFE70C98806D0B90F4
:101480000C98C06D00F01F003F2101FA00F00B998D
:1014900088600CE00C98806D0A900C98C06D00F08C
:1014A0001F00012101FA00F00A994860FFE70C983B
:1014B000006801211022C4F202029042019100F062
:1014C0000381FFE70C98006801212822C4F2020280
:1014D0009042019100F0F880FFE70C98006801212C
:1014E0004022C4F202029042019100F0ED80FFE739
:1014F0000C98006801215822C4F202029042019126
:1015000000F0E280FFE70C98006801217022C4F22D
:1015100002029042019100F0D780FFE70C9800682A
:1015200001218822C4F202029042019100F0CC8095
:10153000FFE70C9800680121A022C4F20202904249
:10154000019100F0C180FFE70C9800680121B822EA
:10155000C4F202029042019100F0B680FFE70C98BD
:101560000068012140F21042C4F20202904201914F
:1015700000F0AA80FFE70C980068012140F22842A1
:10158000C4F202029042019100F09E80FFE70C98A5
:101590000068012140F24042C4F2020290420191EF
:1015A00000F09280FFE70C980068012140F2584259
:1015B000C4F202029042019100F08680FFE70C988D
:1015C0000068012140F27042C4F20202904201918F
:1015D0007AD0FFE70C980068012140F28842C4F2FB
:1015E0000202904201916FD0FFE70C980068012140
:1015F00040F2A042C4F202029042019164D0FFE79F
:101600000C980068012140F2B842C4F202029042F4
:10161000019159D0FFE70C980068012145F208427A
:10162000C5F60202904201914ED0FFE70C98006887
:10163000012145F21C42C5F602029042019143D0BD
:10164000FFE70C980068012145F23042C5F602021E
:101650009042019138D0FFE70C980068012145F2D3
:101660004442C5F60202904201912DD0FFE70C984A
:101670000068012145F25842C5F6020290420191EC
:1016800022D0FFE70C980068012145F26C42C5F6B4
:1016900002029042019117D0FFE70C9800680121E7
:1016A00045F28042C5F60202904201910CD0FFE75C
:1016B0000C9800684AF66C31CAF2FD710844B0FA21
:1016C00080F040090190FFE70198C007002815D07D
:1016D000FFE70C98416E806E48600C98C06E002841
:1016E0000BD0FFE70C98C06E016821F48071016097
:1016F0000C98016F406F4860FFE7FFE7FFE70C9829
:10170000002180F83410FFE70C98012180F8351093
:10171000FFE700208DF83700FFE79DF837000EB097
:1017200080BD00000000000080B592B0014610901E
:101730000B9102F011F90E901098002805D1FFE7E7
:1017400001208DF8470000F0B7BC10980068012117
:101750001022C4F2020290420A9100F0A380FFE737
:101760001098006801212822C4F2020290420A91D6
:1017700000F09880FFE71098006801214022C4F231
:10178000020290420A9100F08D80FFE710980068F5
:1017900001215822C4F2020290420A9100F0828094
:1017A000FFE71098006801217022C4F20202904203
:1017B0000A9177D0FFE71098006801218822C4F2CF
:1017C000020290420A916DD0FFE710980068012153
:1017D000A022C4F2020290420A9163D0FFE710985F
:1017E00000680121B822C4F2020290420A9159D045
:1017F000FFE710980068012140F21042C4F2020293
:1018000090420A914ED0FFE710980068012140F203
:101810002842C4F2020290420A9143D0FFE7109896
:101820000068012140F24042C4F2020290420A9153
:1018300038D0FFE710980068012140F25842C4F206
:10184000020290420A912DD0FFE710980068012112
:1018500040F27042C4F2020290420A9122D0FFE7A5
:1018600010980068012140F28842C4F202029042BE
:101870000A9117D0FFE710980068012140F2A042BA
:10188000C4F2020290420A910CD0FFE7109800685F
:101890004FF64831CBF6FD710844B0FA80F04009AC
:1018A0000A90FFE70A98C007002800F08581FFE74B
:1018B0001098406A002801D0FFE7FFE7FFE7109883
:1018C000002180F83410FFE71098022180F83510CD
:1018D000109800681021C4F20201884200F0818053
:1018E000FFE7109800682821C4F20201884278D0EE
:1018F000FFE7109800684021C4F20201884270D0CE
:10190000FFE7109800685821C4F20201884268D0AD
:10191000FFE7109800687021C4F20201884260D08D
:10192000FFE7109800688821C4F20201884258D06D
:10193000FFE710980068A021C4F20201884250D04D
:10194000FFE710980068B821C4F20201884248D02D
:10195000FFE71098006840F21041C4F2020188428B
:101960003FD0FFE71098006840F22841C4F202011E
:10197000884236D0FFE71098006840F24041C4F238
:10198000020188422DD0FFE71098006840F25841CC
:10199000C4F20201884224D0FFE71098006840F2A8
:1019A0007041C4F2020188421BD0FFE71098006822
:1019B00040F28841C4F20201884212D0FFE7109839
:1019C000006840F2A041C4F20201884209D0FFE75A
:1019D0001098006840F2B841C4F20201884209D16F
:1019E000FFE710980068016821F001010A460160D4
:1019F000099208E010980068016821F001010A4688
:101A000001600892FFE7FFE710980068006810F097
:101A1000010F15D0FFE701F09FFFDDF838E0A0EBE4
:101A20000E0006280BD3FFE710982021416510987F
:101A3000032180F8351001208DF847003CE3E3E7EF
:101A40001098006800680F900F9848F23F01CFF699
:101A5000106108400F9010988168C2680369D0F83F
:101A600014C01143194341EA0C0182691143C26950
:101A70001143006A08430F9908430F901098406A79
:101A8000042808D1FFE71098C16A006B08430F993A
:101A900008430F90FFE741F20000C5F600400068E0
:101AA0004FF6FF718843B0F1005F41D3FFE7109814
:101AB0004068292807D3FFE71098406801212F28A4
:101AC00007912AD3FFE7109840683F2807D3FFE724
:101AD000109840680121432807911ED3FFE7109812
:101AE0004068472807D3FFE710984068012149283C
:101AF000079112D3FFE71098406800214F28069104
:101B000008D3FFE7109840680021532838BF01210F
:101B10000691FFE706980790FFE70798C00700289F
:101B200005D0FFE70F9840F480100F90FFE7FFE724
:101B30000F981099096808601098006840690F9024
:101B40000F9820F007000F901098406A0F990843F3
:101B50000F901098406A04281CD1FFE71098806A03
:101B60000F9908430F901098C06A002811D0FFE722
:101B70001098FEF779FD00280AD0FFE71098402161
:101B800041651098012180F835108DF8471093E2D7
:101B9000FFE7FFE70F981099096848611098FEF079
:101BA0004FFB0D901098C06D00F01F003F2101FA0F
:101BB00000F00D9988602CE110980068012145F231
:101BC0000842C5F60202904205914ED0FFE71098F8
:101BD0000068012145F21C42C5F6020290420591BF
:101BE00043D0FFE710980068012145F23042C5F666
:101BF00002029042059138D0FFE710980068012159
:101C000045F24442C5F60202904205912DD0FFE70D
:101C100010980068012145F25842C5F60202904230
:101C2000059122D0FFE710980068012145F26C422F
:101C3000C5F602029042059117D0FFE710980068A0
:101C4000012145F28042C5F60202904205910CD076
:101C5000FFE7109800684AF66C31CAF2FD7108443B
:101C6000B0FA80F040090590FFE70598C00700280A
:101C700000F0C380FFE710980068012145F2084298
:101C8000C5F60202904204914ED0FFE7109800681A
:101C9000012145F21C42C5F602029042049143D054
:101CA000FFE710980068012145F23042C5F60202B4
:101CB0009042049138D0FFE710980068012145F266
:101CC0004442C5F60202904204912DD0FFE71098DD
:101CD0000068012145F25842C5F602029042049183
:101CE00022D0FFE710980068012145F26C42C5F64A
:101CF00002029042049117D0FFE71098006801217A
:101D000045F28042C5F60202904204910CD0FFE7F2
:101D1000109800684AF66C31CAF2FD710844B0FAB6
:101D200080F040090490FFE70498C007002801D024
:101D3000FFE7FFE7FFE71098002180F83410FFE786
:101D40001098022180F835101098006800680F90F4
:101D50000F986FF310100F9010988068402803D1EF
:101D6000FFE71020039008E0109880680021802889
:101D700008BF4FF480410391FFE703981099CA68A8
:101D80000B69D1F814C0D1F818E040EAD20040EA5B
:101D9000D30040EADC0040EADE00CA6940EAD20033
:101DA000096A40EA11100F9908430F900F98109993
:101DB00009680860109801684AF6F832CAF2FD72A4
:101DC00011444CF6CD42CCF6CC42A1FB02124FF6A8
:101DD000FC73C3F6FF7303EA9202C2651098029186
:101DE000FEF02EFA0C901098C06D00F01F0001213B
:101DF00001FA00F00C9948600AE010984021416512
:101E00001098032180F8351001208DF8470053E128
:101E1000FFE71098006801211022C4F202029042EC
:101E2000019100F00381FFE710980068012128224A
:101E3000C4F202029042019100F0F880FFE710988E
:101E4000006801214022C4F202029042019100F098
:101E5000ED80FFE71098006801215822C4F20202C9
:101E60009042019100F0E280FFE7109800680121A4
:101E70007022C4F202029042019100F0D780FFE785
:101E80001098006801218822C4F202029042019158
:101E900000F0CC80FFE7109800680121A022C4F276
:101EA00002029042019100F0C180FFE710980068A3
:101EB0000121B822C4F202029042019100F0B680E2
:101EC000FFE710980068012140F21042C4F20202BC
:101ED0009042019100F0AA80FFE71098006801216C
:101EE00040F22842C4F202029042019100F09E802A
:101EF000FFE710980068012140F24042C4F202025C
:101F00009042019100F09280FFE710980068012153
:101F100040F25842C4F202029042019100F08680E1
:101F2000FFE710980068012140F27042C4F20202FB
:101F3000904201917AD0FFE710980068012140F2A9
:101F40008842C4F20202904201916FD0FFE71098DC
:101F50000068012140F2A042C4F2020290420191C5
:101F600064D0FFE710980068012140F2B842C4F243
:101F700002029042019159D0FFE7109800680121B8
:101F800045F20842C5F60202904201914ED0FFE7A9
:101F900010980068012145F21C42C5F602029042E9
:101FA000019143D0FFE710980068012145F23042CB
:101FB000C5F602029042019138D0FFE71098006800
:101FC000012145F24442C5F60202904201912DD012
:101FD000FFE710980068012145F25842C5F6020259
:101FE0009042019122D0FFE710980068012145F24C
:101FF0006C42C5F602029042019117D0FFE710989B
:102000000068012145F28042C5F60202904201912A
:102010000CD0FFE7109800684AF66C31CAF2FD71E7
:102020000844B0FA80F040090190FFE70198C0072A
:10203000002837D0FFE71098FEF0EEF9109880687E
:10204000802804D1FFE7109800214160FFE7109835
:102050000179006E01601098416E806E48601098A2
:102060004068002815D0FFE710984068082810D86D
:10207000FFE71098FEF75CFA1098C06E4FF0000E64
:10208000C0F800E01098D0F870E0406FCEF804007F
:1020900007E010980021C166109801671098416709
:1020A000FFE7FFE71098002141651098012280F8B2
:1020B00035208DF84710FFE79DF8470012B080BD2E
:1020C000B0B590B09C4696460C4605460E900D91D4
:1020D0000C920B9300208DF82B000E980028CDF861
:1020E00024C0CDF820E00794069504D1FFE7012035
:1020F0008DF83F0079E3FFE70E9890F8340001284F
:1021000004D1FFE702208DF83F006EE30E98012115
:1021100080F83410FFE7FFE70E9890F835000128AB
:1021200040F05083FFE70E98022180F835100E989A
:10213000002141650E9800681021C4F20201884216
:1021400000F08180FFE70E9800682821C4F20201A8
:10215000884278D0FFE70E9800684021C4F202015F
:10216000884270D0FFE70E9800685821C4F202013F
:10217000884268D0FFE70E9800687021C4F202011F
:10218000884260D0FFE70E9800688821C4F20201FF
:10219000884258D0FFE70E980068A021C4F20201DF
:1021A000884250D0FFE70E980068B821C4F20201BF
:1021B000884248D0FFE70E98006840F21041C4F210
:1021C000020188423FD0FFE70E98006840F22841A4
:1021D000C4F20201884236D0FFE70E98006840F250
:1021E0004041C4F2020188422DD0FFE70E980068FA
:1021F00040F25841C4F20201884224D0FFE70E9811
:10220000006840F27041C4F2020188421BD0FFE72F
:102210000E98006840F28841C4F20201884212D050
:10222000FFE70E98006840F2A041C4F20201884224
:1022300009D0FFE70E98006840F2B841C4F20201ED
:10224000884209D1FFE70E980068016821F001017A
:102250000A460160059208E00E980068016821F0C6
:1022600001010A4601600492FFE70E980D990C9A4D
:102270000B9BFEF775FA0E98006801211022C4F23C
:1022800002029042039100F0A380FFE70E980068DD
:1022900001212822C4F202029042039100F09880AA
:1022A000FFE70E98006801214022C4F2020290422A
:1022B000039100F08D80FFE70E98006801215822FD
:1022C000C4F202029042039100F08280FFE70E9870
:1022D000006801217022C4F202029042039177D07B
:1022E000FFE70E98006801218822C4F202029042A2
:1022F00003916DD0FFE70E9800680121A022C4F27F
:1023000002029042039163D0FFE70E98006801211A
:10231000B822C4F202029042039159D0FFE70E980E
:102320000068012140F21042C4F20202904203917F
:102330004ED0FFE70E980068012140F22842C4F217
:1023400002029042039143D0FFE70E9800680121FA
:1023500040F24042C4F202029042039138D0FFE7BB
:102360000E980068012140F25842C4F202029042E5
:1023700003912DD0FFE70E980068012140F27042D2
:10238000C4F202029042039122D0FFE70E98006847
:10239000012140F28842C4F202029042039117D018
:1023A000FFE70E980068012140F2A042C4F2020249
:1023B000904203910CD0FFE70E9800684FF6483129
:1023C000CBF6FD710844B0FA80F040090390FFE7B6
:1023D0000398C007002816D0FFE70E980068006831
:1023E0000B2161F344000E99096808600E98006C97
:1023F000002807D0FFE70E980068016841F0080147
:102400000160FFE715E00E9800680068052161F3A0
:1024100043000E99096808600E98006C002807D0E8
:10242000FFE70E980068016841F004010160FFE7D2
:10243000FFE70E98006801211022C4F202029042C8
:10244000029100F00381FFE70E9800680121282225
:10245000C4F202029042029100F0F880FFE70E9869
:10246000006801214022C4F202029042029100F071
:10247000ED80FFE70E98006801215822C4F20202A5
:102480009042029100F0E280FFE70E98006801217F
:102490007022C4F202029042029100F0D780FFE75E
:1024A0000E98006801218822C4F202029042029133
:1024B00000F0CC80FFE70E9800680121A022C4F252
:1024C00002029042029100F0C180FFE70E9800687E
:1024D0000121B822C4F202029042029100F0B680BB
:1024E000FFE70E980068012140F21042C4F2020298
:1024F0009042029100F0AA80FFE70E980068012147
:1025000040F22842C4F202029042029100F09E8002
:10251000FFE70E980068012140F24042C4F2020237
:102520009042029100F09280FFE70E98006801212E
:1025300040F25842C4F202029042029100F08680BA
:10254000FFE70E980068012140F27042C4F20202D7
:10255000904202917AD0FFE70E980068012140F284
:102560008842C4F20202904202916FD0FFE70E98B7
:102570000068012140F2A042C4F20202904202919E
:1025800064D0FFE70E980068012140F2B842C4F21F
:1025900002029042029159D0FFE70E980068012193
:1025A00045F20842C5F60202904202914ED0FFE782
:1025B0000E980068012145F21C42C5F602029042C5
:1025C000029143D0FFE70E980068012145F23042A6
:1025D000C5F602029042029138D0FFE70E980068DB
:1025E000012145F24442C5F60202904202912DD0EB
:1025F000FFE70E980068012145F25842C5F6020235
:102600009042029122D0FFE70E980068012145F226
:102610006C42C5F602029042029117D0FFE70E9875
:102620000068012145F28042C5F602029042029103
:102630000CD0FFE70E9800684AF66C31CAF2FD71C3
:102640000844B0FA80F040090290FFE70298C00702
:1026500000281BD0FFE70E98006E006810F4803F42
:1026600007D0FFE70E98006E016841F480710160A9
:10267000FFE70E98C06E002807D0FFE70E98C06EE7
:10268000016841F480710160FFE7FFE70E98006880
:102690001021C4F20201884200F08180FFE70E9809
:1026A00000682821C4F20201884278D0FFE70E9822
:1026B00000684021C4F20201884270D0FFE70E9802
:1026C00000685821C4F20201884268D0FFE70E98E2
:1026D00000687021C4F20201884260D0FFE70E98C2
:1026E00000688821C4F20201884258D0FFE70E98A2
:1026F0000068A021C4F20201884250D0FFE70E9882
:102700000068B821C4F20201884248D0FFE70E9861
:10271000006840F21041C4F2020188423FD0FFE756
:102720000E98006840F22841C4F20201884236D077
:10273000FFE70E98006840F24041C4F2020188426F
:102740002DD0FFE70E98006840F25841C4F2020114
:10275000884224D0FFE70E98006840F27041C4F22E
:10276000020188421BD0FFE70E98006840F28841C2
:10277000C4F20201884212D0FFE70E98006840F2CE
:10278000A041C4F20201884209D0FFE70E98006818
:1027900040F2B841C4F20201884209D1FFE70E9825
:1027A0000068016841F001010A460160019208E0F9
:1027B0000E980068016841F001010A46016000922C
:1027C000FFE70DE0FFE70E98002180F83410FFE7E7
:1027D0000E984FF40061416501208DF82B00FFE752
:1027E0009DF82B008DF83F00FFE79DF83F0010B0EB
:1027F000B0BD00000000000080B588B013468C46D4
:102800008646069005910492069890F898008DF8F7
:102810000F009DF80F0001280293CDF804C0CDF8F9
:1028200000E005D0FFE79DF80F0002285CD1FFE72C
:10283000059806990968896D084207D1FFE706984F
:102840000068C16D41F00101C16515E00598069968
:102850000968896D08400599884207D1FFE7069805
:102860000068C16D41F00201C16504E0069800688E
:102870000321C165FFE7FFE79DF8150080070028E9
:1028800009D5FFE7049806990968D1F8E0201043BC
:10289000C1F8E000FFE79DF815004007002809D5C2
:1028A000FFE7049806990968D1F8E4201043C1F8BD
:1028B000E400FFE7FFE705984FF6FF71C3F6CF711D
:1028C0000840069909684A6D1043486505984AF61C
:1028D0001401C4F200010A6842EA90700860FFE740
:1028E00000208DF81F000AE00698D0F89C1041F0F7
:1028F0000201C0F89C1001208DF81F00FFE79DF831
:102900001F0008B080BD000089B00A46034607904A
:102910000691079890F898008DF80B009DF80B0031
:1029200001280192009305D0FFE79DF80B000228D3
:102930006BD1FFE70698C068072801D1FFE7FFE7E2
:102940000698006800282FD1FFE70698C06807287E
:1029500001D0FFE7FFE70698C06807280CD1FFE722
:10296000069801698269C069090441EA00201043A0
:1029700040F0605005900CE006988168C2680369D9
:102980004069890741EAC26141EA03410843059071
:10299000FFE70798C06E0699496800EB8100039035
:1029A0000598039908602CE00698C068072801D0B4
:1029B000FFE7FFE70698C168006940EA41700590AB
:1029C0000698C068072804D1FFE70698806904903C
:1029D00006E006988168406940EA81700490FFE74C
:1029E0000798006F0699496800EBC10003900598AD
:1029F00003990860039804300390049803990860D1
:102A0000FFE700208DF823000AE00798D0F89C101B
:102A100041F00201C0F89C1001208DF82300FFE76F
:102A20009DF8230009B0704770B58AB0DDF838C052
:102A30009E4614460D460646089007910692059359
:102A4000089890F898000128CDF810E003940295BA
:102A50000196CDF800C012D1FFE707980001069952
:102A600040EA8100059940EA41000E99084308991F
:102A70000968C1F8800000208DF827000AE0089856
:102A8000D0F89C1041F00401C0F89C1001208DF892
:102A90002700FFE79DF827000AB070BD0000000086
:102AA00082B001460190009102B070470000000022
:102AB00084B00A460346039002910192009304B049
:102AC0007047000000000000B0B58EB09C469646EE
:102AD0000C4605460C900B910A9209930020059034
:102AE0000C9890F898008DF813009DF813000228B8
:102AF000CDF80CC0CDF808E00194009540F063815A
:102B0000FFE70B98402853D1FFE70C980068D0F8F6
:102B1000A00010F4FE0F0BD1FFE70C98D0F89C102A
:102B200041F02001C0F89C1001208DF8370055E1DC
:102B30000C980068D0F8A40010F07F0F0BD1FFE7CD
:102B40000C98D0F89C1041F48071C0F89C100120C2
:102B50008DF8370042E10C980068D0F8A40000F02E
:102B600080700121B1EB106F0ED1FFE70C98006867
:102B7000D0F8A0004FF00041B1EBD07F03D1FFE7C8
:102B800001200590FFE7FFE70C980068D0F8A4004B
:102B900000F47C50059901EB102005900C98416CD5
:102BA000406F059A514300EB81000890FFE772E007
:102BB0000B98412853D1FFE70C980068D0F8B0007B
:102BC00010F4FE0F0BD1FFE70C98D0F89C1041F0E9
:102BD0002001C0F89C1001208DF83700FEE00C9811
:102BE0000068D0F8B40010F07F0F0BD1FFE70C980D
:102BF000D0F89C1041F48071C0F89C1001208DF831
:102C00003700EBE00C980068D0F8B40000F080705A
:102C10000121B1EB106F0ED1FFE70C980068D0F8DE
:102C2000B0004FF00041B1EBD07F03D1FFE70120AE
:102C30000590FFE7FFE70C980068D0F8B40000F4B7
:102C40007C50059901EB102005900C98C16C806FA9
:102C5000059A514300EB81000890FFE71AE00B98BA
:102C60000C99096D88420BD3FFE70C98D0F89C10A3
:102C700041F02001C0F89C1001208DF83700ADE034
:102C80000C98416DC06F0B9A514300EB8100089086
:102C9000FFE7FFE7FFE70898006800F080400A9927
:102CA00048600A984068002807D1FFE70898006844
:102CB000C0F38A400A99086006E00898006820F08E
:102CC00060400A990860FFE70898006800F000502B
:102CD0000A9988600898006800F000400A99086125
:102CE000089804300890089800880A99C8610898E4
:102CF000006800F470200A99C8600898006800F421
:102D000080100A9948610898006800F400100A9938
:102D1000886108980068C0F306600A9908620898FC
:102D20000068C00F0A994862089804300890089813
:102D3000079000200690FFE706980A99C98949F68E
:102D40006442C0F60002515C88420AD2FFE707984D
:102D50000699405C099A5054FFE7069801300690A6
:102D6000EAE70B98402806D1FFE705980C99096817
:102D7000C1F8A80023E00B98412806D1FFE7059889
:102D80000C990968C1F8B80018E00B981F2809D8F9
:102D9000FFE70B98012101FA00F00C990968C1F8CE
:102DA00098000AE00B9800F01F00012101FA00F0E2
:102DB0000C990968C1F89C00FFE7FFE7FFE70020D6
:102DC0008DF837000AE00C98D0F89C1041F008010B
:102DD000C0F89C1001208DF83700FFE79DF8370000
:102DE0000EB0B0BD0000000083B001460290029812
:102DF0000068D0F8C40000F03F00019001980091F5
:102E000003B070470000000080B592B001461190F9
:102E10004AF61000C4F200000068800710904AF6DD
:102E20001400C4F200000068109A02EA807010904A
:102E300011980068006D00F470400F9011980068C0
:102E4000406D0F9A10400F9011980068006D00F0CF
:102E50000F000E9011980068406D0E9A10400E9071
:102E600011980068006D00F0F0000D901198006856
:102E7000406D0D9A10400D9011980068006D00F0A3
:102E800071500C9011980068406D0C9A10400C9095
:102E900011980068006D00F060700B901198006848
:102EA000406D0B9A10400B9011980068406D10F423
:102EB000807F019119D0FFE711980068006D10F430
:102EC000807F11D0FFE7FFE7119800684FF4807111
:102ED00001654AF61000C4F2000000210160FFE71E
:102EE0001198FFF04DFBFFE7FFE711980068406D78
:102EF00010F4806F26D0FFE711980068006D10F481
:102F0000806F1ED0FFE711980068D0F8DC000990B0
:102F100011980068D0F8E400099908400990FFE78B
:102F2000119800684FF4806101654AF61000C4F200
:102F3000000000210160FFE71198099900F0B8FC3A
:102F4000FFE7FFE71098002817D0FFE7FFE710988A
:102F50004FF6FF71C3F6CF710840119909680865F3
:102F60001098800F4AF61001C4F200010860FFE7D4
:102F700011981099FFF0F8FAFFE70F98002817D082
:102F8000FFE7FFE70F984FF6FF71C3F6CF710840D8
:102F90001199096808650F98800F4AF61001C4F26C
:102FA00000010860FFE711980F9900F08DFCFFE722
:102FB0000E98002817D0FFE7FFE70E984FF6FF7135
:102FC000C3F6CF7108401199096808650E98800F03
:102FD0004AF61001C4F200010860FFE711980E994B
:102FE000FFF0B6FBFFE70D98002817D0FFE7FFE7DB
:102FF0000D984FF6FF71C3F6CF710840119909681B
:1030000008650D98800F4AF61001C4F200010860AF
:10301000FFE711980D9900F0DFFBFFE711980068BA
:10302000406D10F4006F19D0FFE711980068006D33
:1030300010F4006F11D0FFE7FFE7119800684FF41C
:10304000006101654AF61000C4F200000021016031
:10305000FFE7119800F044FCFFE7FFE711980068D4
:10306000406D10F4007F26D0FFE711980068006DD6
:1030700010F4007F1ED0FFE711980068D0F8D80048
:103080000A9011980068D0F8E0000A9908400A9068
:10309000FFE7119800684FF4007101654AF61000CF
:1030A000C4F2000000210160FFE711980A99FFF0C7
:1030B000E7FBFFE7FFE711980068406D10F4002F71
:1030C00019D0FFE711980068006D10F4002F11D09F
:1030D000FFE7FFE7119800684FF4002101654AF609
:1030E0001000C4F2000000210160FFE71198FFF01A
:1030F00027FBFFE7FFE711980068406D10F4803F61
:1031000019D0FFE711980068006D10F4803F11D0CE
:10311000FFE7FFE7119800684FF4803101654AF638
:103120001000C4F2000000210160FFE7119800F0D8
:10313000B7FBFFE7FFE711980068406D10F4802FA0
:1031400019D0FFE711980068006D10F4802F11D09E
:10315000FFE7FFE7119800684FF4802101654AF608
:103160001000C4F2000000210160FFE71198FFF099
:103170007FFBFFE7FFE711980068406D10F4003F08
:103180001DD0FFE711980068006D10F4003F15D0C6
:10319000FFE7FFE7119800684FF4003101654AF638
:1031A0001000C4F2000000210160FFE71198D0F880
:1031B0009C1041F08001C0F89C10FFE7FFE70B98DE
:1031C000002817D0FFE7FFE70B984FF6FF71C3F613
:1031D000CF7108401199096808650B98800F4AF66D
:1031E0001001C4F200010860FFE711980B99FFF786
:1031F0005FFCFFE70C9800281AD0FFE7FFE70C9868
:103200004FF6FF71C3F6CF71084011990968086540
:103210000C98800F4AF61001C4F200010860FFE725
:103220000C981199D1F89C201043C1F89C00FFE73D
:10323000119800684AF20001C4F20001884240F08F
:10324000B280FFE711984068806810F0030F00F02B
:10325000A980FFE711984068006A00F00F0008900D
:1032600011984068406A0899084008901198406891
:10327000006A00F03000079011984068406A079992
:103280000840079011984068006A00F4C0700690EA
:1032900011984068406A0699084006901198406865
:1032A000006A00F4FC40059011984068406A059956
:1032B0000840059011984068006A00F4F0200490DE
:1032C00011984068406A04990840049008980028C2
:1032D00009D0FFE708981199496808621198089980
:1032E000FFF0AAFAFFE70798002809D0FFE7079840
:1032F0001199496808621198079900F0C5FAFFE72B
:1033000011984068406A10F0400F1DD0FFE71198F7
:103310004068006A10F0400F15D0FFE71198406830
:10332000C06B000C039011984068C06B00F03F0028
:103330000290119840684021016211980399029A05
:10334000FFF086FAFFE7FFE70698002809D0FFE7BD
:10335000069811994968086211980699FFF060FA79
:10336000FFE7059800280CD0FFE7059811994968F8
:10337000086205981199D1F89C201043C1F89C006F
:10338000FFE7049800280CD0FFE7049811994968DA
:10339000086204981199D1F89C201043C1F89C0050
:1033A000FFE7FFE7FFE71198D0F89C00002804D062
:1033B000FFE71198FFF774FBFFE712B080BD000034
:1033C00080B586B00146049004980028019104D18C
:1033D000FFE701208DF81700F7E1049800684AF232
:1033E0000001C4F20001884206D1FFE70498016899
:1033F00001F580714160FFE704988068B0F5407F77
:1034000001D1FFE7FFE70498006C002801D0FFE737
:10341000FFE70498806C002801D0FFE7FFE70498DD
:10342000006D002801D0FFE7FFE70498006E002838
:1034300001D0FFE7FFE70498C16D006E0844002843
:1034400001D0FFE7FFE7049890F89800002808D122
:10345000FFE70498002180F899100498FFF098F88D
:10346000FFE704980068816921F01001816100F094
:1034700073FA0390FFE704980068806910F0080F62
:1034800019D0FFE700F068FADDF80CE0A0EB0E00C1
:103490000B280FD3FFE70498D0F89C1041F00101EE
:1034A000C0F89C100498032180F8981001208DF832
:1034B00017008AE1DFE704980068816941F00101A3
:1034C000816100F049FA0390FFE704980068806981
:1034D00010F0010F19D1FFE700F03EFADDF80CE023
:1034E000A0EB0E000B280FD3FFE70498D0F89C1038
:1034F00041F00101C0F89C100498032180F8981055
:1035000001208DF8170060E1DFE704980068816909
:1035100041F0020181610498007C012807D1FFE796
:1035200004980068816921F04001816106E00498F7
:103530000068816941F040018161FFE70498407CA7
:10354000012807D1FFE704980068816941F48041B0
:10355000816106E004980068816921F480418161FD
:10356000FFE70498807C012807D1FFE704980068F2
:10357000816921F48051816106E0049800688169C5
:1035800041F480518161FFE704980068806920F46C
:10359000407004990A68896808439061049800683B
:1035A000816921F0A401816104980068016921F01A
:1035B000100101610498C068012807D1FFE7049851
:1035C0000068816941F0040181612CE00498C068C1
:1035D000002826D0FFE70498C068022819D0FFE72A
:1035E00004980068816941F0800181610498006855
:1035F000016941F0100101610498C068032807D1F6
:10360000FFE704980068816941F020018161FFE7CC
:1036100006E004980068816941F020018161FFE7BC
:1036200000E0FFE7FFE70498016842698369D0F88A
:103630001CC04FF07E4E0EEB43636FF0FF0E0EEB9F
:103640000C2C43EA0C03006A013818430023CFF620
:10365000FF7303EB02421043C86104988068B0F521
:10366000407F1BD1FFE704980168426A836AD0F863
:103670002CC0013B6FF0FF0E0EEB0C2C43EA0C0349
:10368000006B6FF00F0C0CEB001018430023CFF60B
:10369000FF7303EB02421043C860FFE70498006E1B
:1036A000002809D0FFE704980168406ED1F8C020D7
:1036B0001043C1F8C000FFE70498C16D006E0844D4
:1036C000002813D0FFE704980068D0F8C80020F065
:1036D000070004990A68896E49F64873C0F610031A
:1036E00053F821100843C2F8C800FFE70498006CA3
:1036F000002813D0FFE704980068D0F8BC0020F041
:10370000070004990A68496C49F64873C0F610032B
:1037100053F821100843C2F8BC00FFE70498806CFE
:10372000002814D0FFE704980068D0F8BC0020F00F
:10373000700004990A68C96C49F64873C0F6100312
:1037400053F8211040EA0110C2F8BC00FFE70498CA
:10375000006D002814D0FFE704980068D0F8BC0082
:1037600020F4E06004990A68496D49F64873C0F690
:10377000100353F8211040EA0120C2F8BC00FFE713
:10378000049800684AF20001C4F20001884207D19F
:10379000FFE704984068816821F003018160FFE73A
:1037A00004980021C0F894100498C0F89C10049864
:1037B000012180F898100498FCF03AFF8DF80B0076
:1037C0009DF80B008DF81700FFE79DF8170006B075
:1037D00080BD0000000000002DE9F04F91B00A46C6
:1037E000034610900F9141F2B820C2F2004040F61B
:1037F0001421C2F2004140F2340CC2F2004C4FF0EE
:10380000410E0E900D917146DDF834E00C92724637
:103810000B936346CDF828C0FFF756F90D990A6857
:1038200049680D9BD3F808C0DB68DDF834E0DEF8AA
:103830001040DEF81450DEF81860DEF81C70DEF878
:103840002080DEF82490EA46DDF828B0CAF818B0E7
:10385000CAF81490CAF81080CAF80C70CAF8086048
:10386000CAF80450CAF8004009901046624604F0B5
:10387000A3FA102100220E98FEF7BEFF089011B0A7
:10388000BDE8F08F0000000084B00A4603460390B4
:1038900002910192009304B0704700000000000004
:1038A00082B001460190009102B070470000000014
:1038B00084B00A460346039002910192009304B03B
:1038C000704700000000000084B00A4603460390E1
:1038D00002910192009304B07047000000000000C4
:1038E00082B001460190009102B0704700000000D4
:1038F00084B00A4603460390ADF80A1003980069A5
:10390000BDF80A1008420192009304D0FFE701209D
:103910008DF8090003E000208DF80900FFE79DF80D
:10392000090004B07047000085B00A4603460490C1
:10393000ADF80E100498406902900298BDF80E1080
:1039400000EA010C21EA000040EA0C400499886179
:103950000192009305B0704741F67000C2F200403A
:10396000006870470000000080B582B00320FFF0BF
:1039700083FAFFF0CDFE44F2184EC5F6020EDEF8D3
:103980000010C1F3032149F63072C0F61002515CF9
:1039900001F01F01C84000900098DEF8001001F00F
:1039A0000F01515C01F01F01C84040F29021C2F2AA
:1039B00000410860009840F28C21C2F2004108608A
:1039C0000F20FFF095F9002804D0FFE701208DF8C3
:1039D000070006E0FFF03CFA4FF0000E8DF807E01C
:1039E000FFE79DF8070002B080BD00000000000066
:1039F000BFF35F8F4EF62450CEF20000016821F431
:103A0000803101604EF69450CEF20000002101603A
:103A1000704700000000000080B582B00146ADF89C
:103A20000600BDF90600009106F046F802B080BD20
:103A300080B58AB013468C468646ADF826000891BC
:103A400007920593CDF810C0CDF80CE006F050F8C1
:103A5000069006980899079ABDF92630029303F05C
:103A600043FE029901900846019906F16DF90AB0EA
:103A700080BD00000000000080B501F069F944F24B
:103A8000204EC5F6020EDEF800E0CEF3021E49F627
:103A90003071C0F6100111F80E1001F01F01C8407E
:103AA00080BD00000000000089B00146089044F28B
:103AB0002840C5F60200026802F00302079200687F
:103AC000C0F30530069044F22C40C5F602000068B1
:103AD000C0F300100590059844F23C42C5F602027E
:103AE0001268C2F3CC02504300EE100AB8EE400A4E
:103AF0008DED030A06980028019100F02181FFE76F
:103B000007980028009009D0FFE7009801286BD0A3
:103B1000FFE70098022800F08C80AFE044F20040FC
:103B2000C5F60200006800F020000021B1EB501F34
:103B300034D0FFE744F20040C5F602000068C0F34D
:103B4000C10049F20001C0F2D03121FA00F0049026
:103B50009DED040AB8EE400A9DED061AB8EE411A32
:103B600080EE010A44F23840C5F6020000686FF3A7
:103B70005F2001EE100AB8EE411A9DED032A9FED79
:103B8000763A82EE032A31EE021AB7EE002A31EEBF
:103B9000021A20EE010A8DED020A24E0069800EEDA
:103BA000100AB8EE400A9FED6E1A81EE000A44F248
:103BB0003840C5F6020000686FF35F2001EE100A7E
:103BC000B8EE411A9DED032A9FED633A82EE032A77
:103BD00031EE021AB7EE002A31EE021A20EE010A87
:103BE0008DED020AFFE76EE0069800EE100AB8EECF
:103BF000400A9FED5A1A81EE000A44F23840C5F699
:103C0000020000686FF35F2001EE100AB8EE411A5F
:103C10009DED032A9FED503A82EE032A31EE021AFF
:103C2000B7EE002A31EE021A20EE010A8DED020AEB
:103C300049E0069800EE100AB8EE400A9FED451ADA
:103C400081EE000A44F23840C5F6020000686FF3C6
:103C50005F2001EE100AB8EE411A9DED032A9FED98
:103C60003E3A82EE032A31EE021AB7EE002A31EE16
:103C7000021A20EE010A8DED020A24E0069800EEF9
:103C8000100AB8EE400A9FED351A81EE000A44F2A0
:103C90003840C5F6020000686FF35F2001EE100A9D
:103CA000B8EE411A9DED032A9FED2B3A82EE032ACE
:103CB00031EE021AB7EE002A31EE021A20EE010AA6
:103CC0008DED020AFFE79DED020A44F23840C5F689
:103CD00002000168C1F3462101EE101AB8EE411A44
:103CE000B7EE002A31EE021A80EE010A0899BCEE06
:103CF000C00A81ED000A9DED020A0168C1F3064188
:103D000001EE101AB8EE411A31EE021A80EE010AE5
:103D10000899BCEEC00A81ED010A9DED020A006817
:103D2000C0F3066001EE100AB8EE411A31EE021A35
:103D300080EE010A0898BCEEC00A80ED020A07E096
:103D40000898002101600898416008988160FFE7A9
:103D500009B070470024F44A000000460024744A69
:103D60000024744C0000000080B59EB001461C90F9
:103D700000208DF867008DF866001C98006800012F
:103D8000002818914AD5FFE71C98406E002817902C
:103D90000FD0FFE71798B0F5801F13D0FFE71798F3
:103DA000B0F5001F16D0FFE71798B0F5401F19D0E7
:103DB00019E044F22C40C5F60200016841F40031DC
:103DC000016014E01C980430022103F191FB8DF88E
:103DD00067000CE01C982430022103F001FF8DF8ED
:103DE000670004E003E001208DF86700FFE79DF81D
:103DF000670000280CD1FFE744F25040C5F60200EE
:103E0000016821F440111C9A526E1143016004E0D4
:103E10009DF867008DF86600FFE7FFE71C980068D3
:103E2000C005002841D5FFE71C98406D0428169076
:103E300020D81699DFE801F0030C141C1D0044F291
:103E40002C40C5F60200016841F40031016015E024
:103E50001C980430002103F14BFB8DF867000DE046
:103E60001C982430002103F0BBFE8DF8670005E0AC
:103E700004E003E001208DF86700FFE79DF867008C
:103E800000280CD1FFE744F25040C5F6020001685B
:103E900021F007011C9A526D1143016004E09DF866
:103EA00067008DF86600FFE7FFE71C980068800553
:103EB00000284DD5FFE71C98806D0028159011D083
:103EC000FFE71598402816D0FFE7159880281AD0EC
:103ED000FFE71598C0281ED0FFE71598B0F5807F42
:103EE0001AD01AE044F22C40C5F60200016841F4F1
:103EF0000031016015E01C980430002103F1F8FA4C
:103F00008DF867000DE01C982430002103F068FE56
:103F10008DF8670005E004E003E001208DF86700FC
:103F2000FFE79DF8670000280CD1FFE744F25040FE
:103F3000C5F60200016821F4E0711C9A926D1143EC
:103F4000016004E09DF867008DF86600FFE7FFE779
:103F50001C9800684005002852D5FFE71C98D0F84F
:103F6000A4000028149014D0FFE71498B0F5001FA7
:103F700018D0FFE71498B0F5800F1BD0FFE7149816
:103F8000B0F5C00F1ED0FFE71498B0F5000F1AD09F
:103F90001AE044F22C40C5F60200016841F40031F9
:103FA000016015E01C980430002103F1A1FA8DF89E
:103FB00067000DE01C982430002103F011FE8DF8FD
:103FC000670005E004E003E001208DF86700FFE7EB
:103FD0009DF8670000280DD1FFE744F25840C5F670
:103FE0000200016821F460011C9AD2F8A420114358
:103FF000016004E09DF867008DF86600FFE7FFE7C9
:104000001C9800680005002852D5FFE71C98D0F8DE
:10401000A8000028139014D0FFE71398B0F1807F18
:1040200018D0FFE71398B0F1007F1BD0FFE713987B
:10403000B0F1407F1ED0FFE71398B0F1806F1AD027
:104040001AE044F22C40C5F60200016841F4003148
:10405000016015E01C980430002103F149FA8DF845
:1040600067000DE01C982430002103F0B9FD8DF8A5
:10407000670005E004E003E001208DF86700FFE73A
:104080009DF8670000280DD1FFE744F25840C5F6BF
:104090000200016821F0E0611C9AD2F8A8201143C7
:1040A000016004E09DF867008DF86600FFE7FFE718
:1040B0001C9800688001002840D5FFE71C98806CA0
:1040C000002812901ED0FFE71298102808D0FFE7B2
:1040D000129820280DD0FFE71298302811D012E056
:1040E00044F22C40C5F60200016841F40031016041
:1040F0000DE01C980430022103F1FAF98DF86700F5
:1041000005E004E003E001208DF86700FFE79DF87B
:10411000670000280CD1FFE744F24C40C5F60200CE
:10412000016821F030011C9A926C1143016004E097
:104130009DF867008DF86600FFE7FFE71C980068B0
:10414000C004002850D5FFE71C98C06D00281190CE
:1041500014D0FFE71198B0F5805F18D0FFE71198F1
:10416000B0F5005F1BD0FFE71198B0F5405F1ED09F
:10417000FFE71198B0F5804F1AD01AE044F22C40B6
:10418000C5F60200016841F40031016015E01C9899
:104190000430002103F1ACF98DF867000DE01C98A4
:1041A0002430002103F01CFD8DF8670005E004E0D9
:1041B00003E001208DF86700FFE79DF86700002805
:1041C0000CD1FFE744F25040C5F60200016821F42B
:1041D000E0411C9AD26D1143016004E09DF8670034
:1041E0008DF86600FFE7FFE71C9800688004002850
:1041F0004ED5FFE71C98006E0028109019D0FFE7FD
:104200001098B0F5803F15D0FFE71098B0F5003F4B
:1042100018D0FFE71098B0F5403F1BD0FFE710988B
:10422000B0F5802F17D0FFE71098B0F5A02F13D06E
:1042300013E016E01C980430012103F159F98DF8C0
:1042400067000EE01C982430012103F0C9FC8DF8B2
:10425000670006E005E004E003E001208DF8670058
:10426000FFE79DF8670000280CD1FFE744F25040BB
:10427000C5F60200016821F4E0211C9A126E114378
:10428000016004E09DF867008DF86600FFE7FFE736
:104290001C9800684004002850D5FFE71C98D0F80F
:1042A000AC0000280F9019D0FFE70F98B0F1805FA5
:1042B00015D0FFE70F98B0F1005F18D0FFE70F9817
:1042C000B0F1405F1BD0FFE70F98B0F1804F17D0DF
:1042D000FFE70F98B0F1A04F13D013E016E01C9841
:1042E0000430012103F104F98DF867000EE01C98F9
:1042F0002430012103F074FC8DF8670006E005E02E
:1043000004E003E001208DF86700FFE79DF86700F7
:1043100000280DD1FFE744F25840C5F602000168BD
:1043200021F0E0411C9AD2F8AC201143016004E076
:104330009DF867008DF86600FFE7FFE71C980068AE
:10434000000400283DD5FFE71C98C06E00280E90A1
:104350001BD0FFE70E98B0F1805F05D0FFE70E9805
:10436000B0F1005F09D011E044F22C40C5F6020024
:10437000016841F4003101600CE01C980430012117
:1043800003F1B6F88DF8670004E003E001208DF832
:104390006700FFE79DF8670000280CD1FFE744F2B3
:1043A0005040C5F60200016821F040511C9AD26EBF
:1043B0001143016004E09DF867008DF86600FFE797
:1043C000FFE71C980068C001002838D5FFE71C985B
:1043D000406C03280D9017D80D99DFE801F0140206
:1043E0000B1344F22C40C5F60200016841F4003181
:1043F00001600DE01C980430022103F179F88DF87A
:10440000670005E004E003E001208DF86700FFE7A6
:104410009DF8670000280CD1FFE744F24C40C5F638
:104420000200016821F003011C9A526C11430160E3
:1044300004E09DF867008DF86600FFE7FFE71C9831
:1044400000684002002840F1BD80FFE744F600000C
:10445000C5F60200016841F480710160FFF77CFA43
:104460001A90FFE744F60000C5F60200006810F459
:10447000807F0ED1FFE7FFF76FFADDF868E0A0EB71
:104480000E00652804D3FFE703208DF8670000E0E5
:10449000E8E79DF86700002840F08E80FFE744F2CF
:1044A0007040C5F60200006800F440701C99D1F815
:1044B000B01001F44071884213D0FFE744F270401D
:1044C000C5F60200016821F440711B91016841F4B6
:1044D00080310160016821F4803101601B99016025
:1044E000FFE71C98D0F8B000B0F5807F21D1FFE73E
:1044F000FFF732FA1A90FFE744F27040C5F6020067
:10450000006800F002000021B1EB500F10D1FFE76E
:10451000FFF722FADDF868E0A0EB0E0041F2893ED9
:10452000704504D3FFE703208DF8670000E0E3E760
:10453000FFE79DF86700002838D1FFE7FFE71C98E8
:10454000D0F8B00000F44070B0F5407F15D1FFE71F
:1045500044F21040C5F60200016821F47C511C9A17
:10456000D2F8B0204FF6F043C0F6FF731A4041EA8C
:1045700012110A4601600C920AE044F21040C5F69E
:104580000200016821F47C510A4601600B92FFE7AA
:104590001C98D0F8B0006FF31F3044F27041C5F69C
:1045A00002010A6810430860FFE704E09DF8670015
:1045B0008DF86600FFE704E09DF867008DF866005F
:1045C000FFE7FFE71C980068C007002800F04D8057
:1045D000FFE71C98806F28280A902BD80A99DFE8FB
:1045E00001F01529292929292929162929292929C3
:1045F00029291E2929292929292926292929292939
:1046000029292729292929292929280016E01C9840
:104610000430012102F16CFF8DF867000EE01C9858
:104620002430012103F0DCFA8DF8670006E005E094
:1046300004E003E001208DF86700FFE79DF86700C4
:1046400000280CD1FFE744F25440C5F6020001688F
:1046500021F038011C9A926F1143016004E09DF82B
:1046600067008DF86600FFE7FFE71C980068800789
:1046700000283AD5FFE71C98406F0528099019D803
:104680000999DFE801F003040C14151616E01C98D4
:104690000430012102F12CFF8DF867000EE01C9818
:1046A0002430012103F09CFA8DF8670006E005E054
:1046B00004E003E001208DF86700FFE79DF8670044
:1046C00000280CD1FFE744F25440C5F6020001680F
:1046D00021F007011C9A526F1143016004E09DF81C
:1046E00067008DF86600FFE7FFE71C980068400749
:1046F00000283CD5FFE71C98D0F8900005280890CA
:1047000019D80899DFE801F003040C14151616E017
:104710001C980430012102F1EBFE8DF867000EE0D9
:104720001C982430012103F05BFA8DF8670006E045
:1047300005E004E003E001208DF86700FFE79DF845
:10474000670000280DD1FFE744F25840C5F602008B
:10475000016821F007011C9AD2F8902011430160F2
:1047600004E09DF867008DF86600FFE7FFE71C98FE
:1047700000688006002850D5FFE71C98D0F88C0010
:104780000028079019D0FFE70798B0F1805F15D097
:10479000FFE70798B0F1005F18D0FFE70798B0F186
:1047A000405F1BD0FFE70798B0F1804F17D0FFE7BD
:1047B0000798B0F1A04F13D013E016E01C98043016
:1047C000002102F195FE8DF867000EE01C98243060
:1047D000022103F005FA8DF8670006E005E004E029
:1047E00003E001208DF86700FFE79DF867000028CF
:1047F0000DD1FFE744F25440C5F60200016821F0F4
:10480000E0411C9AD2F88C201143016004E09DF82D
:1048100067008DF86600FFE7FFE71C980068400618
:10482000002850D5FFE71C98D0F898000028069083
:1048300019D0FFE70698B0F5806F15D0FFE706980E
:10484000B0F5006F18D0FFE70698B0F5406F1BD0A9
:10485000FFE70698B0F5805F17D0FFE70698B0F540
:10486000A05F13D013E016E01C980430002102F181
:104870003FFE8DF867000EE01C982430022103F003
:10488000AFF98DF8670006E005E004E003E00120E1
:104890008DF86700FFE79DF8670000280DD1FFE75E
:1048A00044F25840C5F60200016821F4E0511C9A18
:1048B000D2F898201143016004E09DF867008DF85C
:1048C0006600FFE7FFE71C9800680006002850D547
:1048D000FFE71C98D0F89C000028059019D0FFE74E
:1048E0000598B0F5005F15D0FFE70598B0F5804F4B
:1048F00018D0FFE70598B0F5C04F1BD0FFE705982B
:10490000B0F5004F17D0FFE70598B0F5204F13D052
:1049100013E016E01C980430002102F1E9FD8DF847
:1049200067000EE01C982430022103F059F98DF83D
:10493000670006E005E004E003E001208DF8670071
:10494000FFE79DF8670000280DD1FFE744F25840CB
:10495000C5F60200016821F460411C9AD2F89C203F
:104960001143016004E09DF867008DF86600FFE7E1
:10497000FFE71C9800680007002821D5FFE71C9876
:10498000D0F88000B0F5805F0DD1FFE71C9824308F
:10499000022103F025F9002804D0FFE701208DF85B
:1049A0006600FFE7FFE744F25440C5F602000168E5
:1049B00021F440511C9AD2F8802011430160FFE796
:1049C0001C980068C006002821D5FFE71C98D0F885
:1049D0009400B0F5807F0DD1FFE71C9824300221B0
:1049E00003F0FEF8002804D0FFE701208DF86600F0
:1049F000FFE7FFE744F25840C5F60200016821F4E2
:104A000040711C9AD2F8942011430160FFE71C9872
:104A10000068000300283ED5FFE71C98D0F8A000EE
:104A2000002804900AD0FFE70498B0F5803F0DD02D
:104A3000FFE70498B0F5003F10D010E01C98043058
:104A4000002102F155FD8DF867000CE01C98243020
:104A5000022103F0C5F88DF8670004E003E00120AF
:104A60008DF86700FFE79DF8670000280DD1FFE78C
:104A700044F25840C5F60200016821F440311C9A06
:104A8000D2F8A0201143016004E09DF867008DF882
:104A90006600FFE7FFE71C9800684003002840D548
:104AA000FFE71C98D0F88400B0F5801F03900AD06F
:104AB000FFE70398B0F5001F0ED0FFE70398B0F5AD
:104AC000401F11D011E044F22C40C5F602000168ED
:104AD00041F4003101600CE01C982430012103F006
:104AE0007FF88DF8670004E003E001208DF867008F
:104AF000FFE79DF8670000280DD1FFE744F254401E
:104B0000C5F60200016821F440111C9AD2F88420F5
:104B10001143016004E09DF867008DF86600FFE72F
:104B2000FFE71C980068C003002837D5FFE71C98F2
:104B3000C06C0028029005D0FFE70298B0F5803FD6
:104B400009D010E044F22C40C5F60200016841F49F
:104B5000003101600BE01C980430022102F1C8FC16
:104B60008DF8670003E001208DF86700FFE79DF8EE
:104B7000670000280CD1FFE744F24C40C5F6020064
:104B8000016821F480311C9AD26C1143016004E069
:104B90009DF867008DF86600FFE7FFE71C98006846
:104BA000800000280DD5FFE71C982430022103F077
:104BB00017F8002804D0FFE701208DF86600FFE712
:104BC000FFE71C980068800300283CD5FFE71C988D
:104BD000C06F002801901AD0FFE70198B0F5807FE0
:104BE0000AD0FFE70198B0F5007F0ED0FFE70198EB
:104BF000B0F5407F0AD00BE044F22C40C5F602002D
:104C0000016841F40031016006E005E004E003E0E2
:104C100001208DF86700FFE79DF8670000280CD1A0
:104C2000FFE744F25440C5F60200016821F44071E8
:104C30001C9AD26F1143016004E09DF867008DF863
:104C40006600FFE7FFE71C980068C00200280CD54B
:104C5000FFE744F25040C5F60200016821F0004130
:104C60001C9A126F11430160FFE71C980068C00096
:104C700000280DD5FFE744F21040C5F60200016898
:104C800021F480411C9AD2F8B42011430160FFE75F
:104C90001C980068800200280CD5FFE744F25040C1
:104CA000C5F60200016821F080711C9A926E1143D2
:104CB0000160FFE71C9800684000002811D5FFE75D
:104CC000FFE744F21040C5F60200016821F40041FC
:104CD00001601C99D1F8B810026811430160FFE728
:104CE000FFE71C980068C00F00280CD0FFE744F2D3
:104CF0004C40C5F60200016821F040511C9A126D2B
:104D000011430160FFE71C980068000200280DD5E0
:104D1000FFE744F25440C5F60200016821F4400167
:104D20001C9AD2F8882011430160FFE79DF86600C5
:104D3000002804D1FFE700208DF8770003E0012070
:104D40008DF87700FFE79DF877001EB080BD00006A
:104D500080B582B0FEF0DCFC44F2184EC5F6020EBF
:104D6000DEF80010C1F3032149F63072C0F61002DC
:104D7000515C01F01F01C84001900198DEF800105D
:104D800001F00F01515C01F01F01C84040F2902179
:104D9000C2F200410860019840F28C22C2F2004247
:104DA0001060086802B080BD82B001460190009199
:104DB00002B070470000000082B0014601900091EF
:104DC00002B070470000000086B00A460346049017
:104DD00003910020029001920093FFE7049890F85D
:104DE0003C00012804D1FFE702208DF8170074E091
:104DF0000498012180F83C10FFE7FFE7029820F0BB
:104E0000FF000399C96808430290029820F440709B
:104E10000399896808430290029820F480600399FE
:104E2000496808430290029820F4006003990968D9
:104E300008430290029820F48050039909690843BE
:104E40000290029820F400500399496908430290A7
:104E5000029820F480400399896A084302900298DE
:104E600020F470200399896940EA01400290049877
:104E700000680021C4F20101884209D0FFE70498CC
:104E8000006840F20041C4F20101884217D1FFE7F7
:104E9000029820F470000399496A40EA0150029098
:104EA000029820F080700399C96908430290029823
:104EB00020F000700399096A08430290FFE7029806
:104EC000049909684864FFE70498002180F83C10C1
:104ED000FFE700208DF81700FFE79DF8170006B0E8
:104EE000704700000000000087B00A4603460590A6
:104EF000049101920093FFE7059890F83C00012887
:104F000004D1FFE702208DF81B0090E005980121F5
:104F100080F83C10FFE7FFE70598022180F83D107C
:104F200005980068406803900598006880680290C2
:104F3000059800680021C4F20101884209D0FFE70A
:104F40000598006840F20041C4F2010188420AD18C
:104F5000FFE7039820F470000390049840680399D9
:104F600008430390FFE7039820F070000390049833
:104F700000680399084303900398059909684860FD
:104F8000059800680021C4F20101884233D0FFE790
:104F900005980068B0F1804F2DD0FFE705980068B4
:104FA00040F20041C4F20001884224D0FFE7059896
:104FB000006840F60001C4F2000188421BD0FFE700
:104FC0000598006840F60041C4F20001884212D002
:104FD000FFE70598006840F20041C4F201018842F1
:104FE00009D0FFE70598006841F60001C4F200010E
:104FF00088420ED1FFE7029820F0800002900498CA
:1050000080680299084302900298059909688860AF
:10501000FFE70598012180F83D10FFE70598002182
:1050200080F83C10FFE700208DF81B00FFE79DF89B
:105030001B0007B07047000080B584B001460290A5
:1050400002980028019104D1FFE701208DF80F009C
:1050500049E0029890F83D00002808D1FFE7029847
:10506000002180F83C100298FFF06EFAFFE70298EA
:10507000022180F83D10029850F8041B0090084669
:10508000009903F095FB0298012180F84810FFE792
:105090000298012180F83E10029880F83F10029893
:1050A00080F84010029880F84110029880F8421071
:1050B000029880F84310FFE7FFE70298012180F88B
:1050C0004410029880F84510029880F84610029823
:1050D00080F84710FFE70298012180F83D1000207A
:1050E0008DF80F00FFE79DF80F0004B080BD0000B1
:1050F00084B001460290029890F83D00012800918A
:1051000004D0FFE701208DF80F0068E0029802212B
:1051100080F83D1002980068C16841F00101C1604B
:10512000029800680021C4F20101884233D0FFE7F1
:1051300002980068B0F1804F2DD0FFE70298006818
:1051400040F20041C4F20001884224D0FFE70298F7
:10515000006840F60001C4F2000188421BD0FFE75E
:105160000298006840F60041C4F20001884212D063
:10517000FFE70298006840F20041C4F20101884252
:1051800009D0FFE70298006841F60001C4F200016F
:10519000884219D1FFE70298006880680721C0F2B1
:1051A000010108400190019806280CD0FFE7019802
:1051B000B0F5803F07D0FFE702980068016841F032
:1051C00001010160FFE706E002980068016841F014
:1051D00001010160FFE700208DF80F00FFE79DF857
:1051E0000F0004B07047000080B58CB00A4603463B
:1051F0000A90099107920693FFE70A9890F83C00FD
:10520000012804D1FFE702208DF82F00DDE00A9885
:10521000012180F83C10FFE7FFE70A98022180F89F
:105220003D100A9800688068089008984FF68871C9
:10523000CFF6CE7108400890089820F47F4008907F
:1052400008980A99096888600998006800280590FC
:1052500000F0A580FFE70598102800F0A080FFE788
:105260000598202800F09B80FFE70598302800F083
:105270009680FFE70598402800F08180FFE70598B9
:1052800050285CD0FFE70598602868D0FFE70598B4
:1052900070282AD0FFE70598B0F5805F24D0FFE79B
:1052A0000598B0F5005F38D0FFE70598B0F5801F8E
:1052B00075D0FFE70598B0F1101F70D0FFE72020F0
:1052C000C0F210000599814269D0FFE73020C0F29A
:1052D00010000599814262D0FFE74020C0F2100023
:1052E000059981425BD061E061E00A980068099904
:1052F0004A688B68C96804911946049B02F17CFED8
:105300000A98006880680890089840F07700089034
:1053100008980A990968886049E00A98006809991C
:105320004A688B68C96803911946039B02F164FEC1
:105330000A980068816841F48041816037E00A98EA
:10534000006809994A68C96802911146029A03F1F6
:105350001FF80A980068502102F176FE27E00A98AB
:10536000006809994A68C96801911146019A03F1D8
:10537000DBF80A980068602102F166FE17E00A98DF
:10538000006809994A68C96800911146009A02F1BB
:10539000FFFF0A980068402102F156FE07E00A98D4
:1053A00000680999096802F14FFE00E0FFE70A98DA
:1053B000012180F83D10FFE70A98002180F83C1099
:1053C000FFE700208DF82F00FFE79DF82F000CB0BD
:1053D00080BD00000000000080B584B0014603904D
:1053E000039800680022C4F201029042019140F04B
:1053F000A581FFE70398007F012863D1FFE740F212
:105400007E20C2F20040007800281BD0FFE70398FE
:105410000068406B40F2B421C2F20041086041F2E2
:105420000000C5F602004FF40071FEF761FA012892
:1054300007D1FFE740F27E20C2F200400021017058
:10544000FFE73EE003980068406B40F2AC21C2F2F7
:1054500000410860086840F2B421C2F200410968C6
:10546000884211D3FFE740F2AC20C2F2004000684E
:1054700040F2B421C2F200410968401A40F2000132
:10548000C2F20041088015E003980068C06A40F24B
:10549000B421C2F200410968401A40F2AC21C2F2C4
:1054A000004109680844013040F20001C2F20041A5
:1054B0000880FFE740F27E20C2F200400121017027
:1054C000FFE73AE10398007F022863D1FFE740F24B
:1054D0008020C2F20040007800281BD0FFE703982C
:1054E0000068806B40F2C421C2F20041086041F2C2
:1054F0000000C5F602004FF40061FEF7F9F901283B
:1055000007D1FFE740F28020C2F200400021017085
:10551000FFE73EE003980068806B40F2BC21C2F2D6
:1055200000410860086840F2C421C2F200410968E5
:10553000884211D3FFE740F2BC20C2F2004000686D
:1055400040F2C421C2F200410968401A40F202014F
:10555000C2F20041088015E003980068C06A40F27A
:10556000C421C2F200410968401A40F2BC21C2F2D3
:10557000004109680844013040F20201C2F20041D2
:105580000880FFE740F28020C2F200400121017054
:10559000FFE7D1E00398007F042863D1FFE740F2E2
:1055A0008220C2F20040007800281BD0FFE7039859
:1055B0000068C06B40F2D021C2F20041086041F2A5
:1055C0000000C5F602004FF40051FEF791F90128E2
:1055D00007D1FFE740F28220C2F2004000210170B3
:1055E000FFE73EE003980068C06B40F2CC21C2F2B6
:1055F00000410860086840F2D021C2F20041096809
:10560000884211D3FFE740F2CC20C2F2004000688C
:1056100040F2D021C2F200410968401A40F2040170
:10562000C2F20041088015E003980068C06A40F2A9
:10563000D021C2F200410968401A40F2CC21C2F2E6
:10564000004109680844013040F20201C2F2004101
:105650000880FFE740F28220C2F200400121017081
:10566000FFE768E00398007F082863D1FFE740F276
:105670008320C2F20040007800281BD0FFE7039887
:105680000068006C40F2D821C2F20041086041F28B
:105690000000C5F602004FF48041FEF729F9012809
:1056A00007D1FFE740F28320C2F2004000210170E1
:1056B000FFE73EE003980068006C40F2D421C2F29C
:1056C00000410860086840F2D821C2F20041096830
:1056D000884211D3FFE740F2D420C2F200400068B4
:1056E00040F2D821C2F200410968401A40F2060196
:1056F000C2F20041088015E003980068C06A40F2D9
:10570000D821C2F200410968401A40F2D421C2F205
:10571000004109680844013040F20601C2F200412C
:105720000880FFE740F28320C2F2004001210170AF
:10573000FFE7FFE7FFE7FFE7FFE7DCE0039800682C
:1057400041F60001C4F20001884240F0D380FFE737
:105750000398007F012863D1FFE740F27F20C2F267
:105760000040007800281BD0FFE703980068406BDA
:1057700040F2B821C2F20041086040F20040C5F694
:1057800002004FF48041FEF7B3F8012807D1FFE78C
:1057900040F27F20C2F2004000210170FFE73EE0AE
:1057A00003980068406B40F2B021C2F200410860EB
:1057B000086840F2B821C2F200410968884211D35A
:1057C000FFE740F2B020C2F20040006840F2B8218A
:1057D000C2F200410968401A40F20801C2F20041D9
:1057E000086015E003980068C06A40F2B821C2F270
:1057F00000410968401A40F2B021C2F20041096834
:105800000844013040F20801C2F200410860FFE79D
:1058100040F27F20C2F2004001210170FFE768E002
:105820000398007F022863D1FFE740F28120C2F293
:105830000040007800281BD0FFE703980068806BC9
:1058400040F2C821C2F20041086040F20040C5F6B3
:1058500002004FF40041FEF74BF8012807D1FFE7A3
:1058600040F28120C2F2004000210170FFE73EE0DB
:1058700003980068806B40F2C021C2F200410860CA
:10588000086840F2C821C2F200410968884211D379
:10589000FFE740F2C020C2F20040006840F2C82199
:1058A000C2F200410968401A40F20C01C2F2004104
:1058B000086015E003980068C06A40F2C821C2F28F
:1058C00000410968401A40F2C021C2F20041096853
:1058D0000844013040F20C01C2F200410860FFE7C9
:1058E00040F28120C2F2004001210170FFE7FFE792
:1058F000FFE7FFE7FFE740F21000C2F20040018837
:1059000000EE101AB8EEC00A40F20001C2F20041E7
:10591000098801EE101AB8EEC11A9FED5C2A21EE3B
:10592000021A9FED5B3A00EE031ABDEEC10A10EEBB
:10593000101A0180418800EE101AB8EEC00A40F239
:105940000201C2F20041098801EE101AB8EEC11A34
:1059500021EE021A00EE031ABDEEC10A10EE101A73
:105960004180818800EE101AB8EEC00A40F20401AE
:10597000C2F20041098801EE101AB8EEC11A21EEF8
:10598000021A00EE031ABDEEC10A10EE101A818051
:10599000C18800EE101AB8EEC00A40F20601C2F249
:1059A0000041098801EE101AB8EEC11A21EE021A60
:1059B00000EE031ABDEEC10A10EE101AC180018973
:1059C00000EE101AB8EEC00A40F20801C2F200411F
:1059D00091ED001AB8EE411A21EE021A00EE031AF8
:1059E000BDEEC10A10EE101A0181418900EE101AB5
:1059F000B8EEC00A40F20C01C2F2004191ED001A6B
:105A0000B8EE411A21EE021A00EE031ABDEEC10AE9
:105A100010EE101A418100200290FFE7029805283D
:105A200031DCFFE7029840F21001C2F2004131F888
:105A30001000B0F5FA7F0ADAFFE7029840F2100191
:105A4000C2F200414FF4FA7221F8102016E00298D9
:105A500040F21001C2F2004131F8100040F6C511C9
:105A600088420ADBFFE7029840F21001C2F20041CF
:105A700040F6C41221F81020FFE7FFE7FFE7029885
:105A800001300290CAE704B080BD00BFCCCC4C3ED0
:105A9000CDCC4C3F0000000082B001460190009147
:105AA00002B070470000000080B588B013468C46F5
:105AB00086460690059104920393CDF808C0CDF870
:105AC00004E0FFE7069890F83C00012804D1FFE7C6
:105AD00002208DF81F00C5E00698012180F83C10D7
