:020000040800F2
:10000000901A002459030008B9710008C16400085F
:10001000A96B1008A9060008C18E10080000000096
:10002000000000000000000000000000417800080F
:10003000010710080000000071720008097B000829
:1000400073030008730300087303000873030008B8
:1000500073030008730300087303000873030008A8
:10006000730300087303000873030008B106000857
:1000700061021008C106000871021008D1060008CC
:1000800081021008E1060008730300081907100830
:10009000710D000873030008730300087303000860
:1000A00073030008730300087303000851721008FB
:1000B0007303000873030008730300087303000848
:1000C0007303000873030008730300087303000838
:1000D0007303000841850008730300086185000868
:1000E000730300087303000800000000117C00087F
:1000F00073030008730300087303000891021008DB
:1001000073030008730300087303000873030008F7
:10011000D97A100889820008017C0008730300085E
:10012000A1021008F1060008730300087303000819
:1001300073030008730300087303000873030008C7
:1001400000000000000000000000000000000000AF
:1001500073030008730300087303000873030008A7
:100160007303000873030008730300087303000897
:100170007303000873030008730300080000000005
:100180007303000873030008F97A1008730300086A
:100190007303000873030008730300087303000867
:1001A0007303000873030008730300087303000857
:1001B0007303000873030008730300087303000847
:1001C0007303000873030008730300087303000837
:1001D0007303000873030008730300087303000827
:1001E0007303000873030008730300087303000817
:1001F0007303000873030008730300087303000807
:1002000073030008730300087303000873030008F6
:1002100073030008730300087303000873030008E6
:100220007303000873030008730300080000000054
:100230007303000873030008000000007303000844
:1002400073030008730300087303000873030008B6
:1002500073030008730300087303000873030008A6
:100260007303000873030008730300087303000896
:100270007303000873030008730300080000000004
:1002800073030008730300087303000800000000F4
:10029000000000007303000800F002F8FFF0B2FE57
:1002A0000AA090E8000C82448344AAF10107DA45D1
:1002B00001D1FFF0A7FEAFF2090EBAE80F0013F06C
:1002C000010F18BFFB1A43F001031847A89900005B
:1002D000C89900000A4410F8014B14F00F0508BF3C
:1002E00010F8015B240908BF10F8014B6D1E05D002
:1002F00010F8013B6D1E01F8013BF9D1641E03D0DB
:10030000641E01F8015BFBD19142E4D37047000009
:100310000023002400250026103A28BF78C1FBD80E
:10032000520728BF30C148BF0B6070471FB509F1A5
:1003300038FB0348034900F00DF88DE80F001FBD9E
:10034000901400249016002403B4FFF059FE03BC5F
:10035000FFF04EFF00F0E9B8064880470648004726
:10036000FEE7FEE7FEE7FEE7FEE7FEE7FEE7FEE765
:10037000FEE7FEE7B16F10089902000810B5203AB9
:10038000C0F00B80B1E81850A0E81850B1E8185040
:10039000A0E81850203ABFF4F5AF5FEA027C24BF12
:1003A000B1E81850A0E8185044BF18C918C0BDE8FB
:1003B00010405FEA827C24BF51F8043B40F8043BC4
:1003C00008BF7047D20728BF31F8023B48BF11F879
:1003D000012B28BF20F8023B48BF00F8012B7047D3
:1003E0001FB584B000200A9C06AB04AA02A90094A1
:1003F000AFF3008018B1DDE9020108B010BD034879
:10040000204000F005F800200146F6E70000207CBF
:1004100010B500F009F8BDE81040AFF300800028E7
:1004200001D0FFF0E5BE704710B5022803D04101AE
:1004300003D50DA112E0002010BD010101D50FA1CF
:100440000CE0C10001D511A108E0810001D512A185
:1004500004E0400001D513A100E0002115A000F048
:100460003AF8012010BD0000496E76616C69642085
:100470004F7065726174696F6E000000446976693F
:100480006465204279205A65726F00004F7665726C
:10049000666C6F7700000000556E646572666C6F65
:1004A00077000000496E657861637420526573754A
:1004B0006C7400005349474650453A2041726974B4
:1004C000686D6574696320657863657074696F6EC3
:1004D0003A200000704770B505460C460A2000E03F
:1004E0006D1CFFF08BFE35B128780028F8D102E0B2
:1004F000641CFFF083FE14B120780028F8D1BDE819
:1005000070400A20FFF07ABE0246C91C21F00301A8
:10051000D2E900031B1A8B4201D20020704701442C
:10052000C91D21F00701116070472DE9F34F83B019
:1005300000274FF48074BA4603A821468DF8007056
:10054000FFF7E2FF5FEA000801D100F080F82146E2
:10055000404600F070F8060009D04FF0010B454608
:10056000C14616F8014B8FB15C2C16D01CE008F187
:1005700008004146C8F800000020C8F80400D8F878
:1005800000402070012005B0BDE8F08F222C01D082
:10059000272C0FD12746BA462CE03078222807D0E6
:1005A0005C2805D0272803D0BC4203D1002721E0D6
:1005B000761C04464CB12FB9202C06D0A4F10900BA
:1005C000042802D905F8014BCBE74D4502D1BAF119
:1005D000000F0FD052464946002005F8010B68462F
:1005E000AFF300809DF8000070B14D464FF0000A57
:1005F0000BF1010B002CB4D14FEA8B0103A8FFF7DC
:1006000083FF040002D004E0A946EFE7002000F0D9
:100610001EF800204246C4F8008005E012F8011BD5
:1006200011B9401C44F82020AA42F7D3002144F815
:1006300020102146A7E71CB50446CDE90001694614
:100640001520ABBE08B100201CBD20461CBD10B556
:10065000FFF0DEFDBDE81040FFF7E1BE0000000046
:1006600080B582B041F2A420C2F2004001680A685D
:1006700042F010020A6040F2C011C2F20041322280
:1006800005F02EFD40F60041C5F6020110224FF0A4
:10069000000E019008461146724602F155FD02B067
:1006A00080BD000000000000FFE7FEE70000000042
:1006B00080B540F6F810C2F2004000F1E9FB80BDC1
:1006C00080B540F6E820C2F2004000F1E1FB80BDB9
:1006D00080B540F64050C2F2004000F1D9FB80BD29
:1006E00080B540F68010C2F2004000F1D1FB80BD21
:1006F00080B540F6C840C2F2004000F1C9FB80BDA1
:1007000084B0014603900398007902900298002873
:10071000019100F08C80FFE70298082800F28780A2
:10072000FFE703980068012145F20842C5F602027E
:10073000904200914ED0FFE703980068012145F2F6
:100740001C42C5F602029042009143D0FFE7039895
:100750000068012145F23042C5F602029042009144
:1007600038D0FFE703980068012145F24442C5F6FE
:100770000202904200912DD0FFE70398006801210A
:1007800045F25842C5F602029042009122D0FFE79E
:1007900003980068012145F26C42C5F602029042BE
:1007A000009117D0FFE703980068012145F28042CD
:1007B000C5F60202904200910CD0FFE70398006852
:1007C0004AF66C31CAF2FD710844B0FA80F0400973
:1007D0000090FFE70098C007002810D0FFE70298BC
:1007E00045F6FC01C5F6020101EB80000399C866DD
:1007F000039845F64011C5F6020101670FE0029823
:1008000040F6FC01C4F2020101EB80000399C866C6
:10081000039840F64011C4F202010167FFE7029815
:100820000138012101FA00F003994867FFE704B09D
:100830007047000000000000B0B58DB09C469646A1
:100840000C4605460C900B910A9209930C98816D09
:100850000891816D0791006801211022C4F2020203
:100860009042CDF818C0CDF814E00494039502919D
:1008700000F00381FFE70C98006801212822C4F2F0
:1008800002029042029100F0F880FFE70C980068A5
:1008900001214022C4F202029042029100F0ED8058
:1008A000FFE70C98006801215822C4F2020290422E
:1008B000029100F0E280FFE70C98006801217022AD
:1008C000C4F202029042029100F0D780FFE70C9838
:1008D000006801218822C4F202029042029100F0D5
:1008E000CC80FFE70C9800680121A022C4F202022C
:1008F0009042029100F0C180FFE70C98006801214E
:10090000B822C4F202029042029100F0B680FFE7E2
:100910000C980068012140F21042C4F20202904299
:10092000029100F0AA80FFE70C980068012140F2D4
:100930002842C4F202029042029100F09E80FFE73A
:100940000C980068012140F24042C4F20202904239
:10095000029100F09280FFE70C980068012140F2BC
:100960005842C4F202029042029100F08680FFE7F2
:100970000C980068012140F27042C4F202029042D9
:1009800002917AD0FFE70C980068012140F288427A
:10099000C4F20202904202916FD0FFE70C98006807
:1009A000012140F2A042C4F202029042029164D0BE
:1009B000FFE70C980068012140F2B842C4F202023D
:1009C0009042029159D0FFE70C980068012145F24E
:1009D0000842C5F60202904202914ED0FFE70C9801
:1009E0000068012145F21C42C5F6020290420291C4
:1009F00043D0FFE70C980068012145F23042C5F66C
:100A000002029042029138D0FFE70C980068012161
:100A100045F24442C5F60202904202912DD0FFE712
:100A20000C980068012145F25842C5F60202904236
:100A3000029122D0FFE70C980068012145F26C4238
:100A4000C5F602029042029117D0FFE70C980068A9
:100A5000012145F28042C5F60202904202910CD07B
:100A6000FFE70C9800684AF66C31CAF2FD71084441
:100A7000B0FA80F040090290FFE70298C007002812
:100A80000FD0FFE70C98416E806E48600C98C06EE6
:100A9000002805D0FFE70C98016F406F4860FFE722
:100AA000FFE70C98006801211022C4F20202904274
:100AB000019100F0A380FFE70C9800680121282233
:100AC000C4F202029042019100F09880FFE70C9876
:100AD000006801214022C4F202029042019100F01C
:100AE0008D80FFE70C98006801215822C4F20202B1
:100AF0009042019100F08280FFE70C98006801218C
:100B00007022C4F202029042019177D0FFE70C9864
:100B1000006801218822C4F20202904201916DD046
:100B2000FFE70C9800680121A022C4F20202904263
:100B3000019163D0FFE70C9800680121B822C4F24C
:100B400002029042019159D0FFE70C980068012100
:100B500040F21042C4F20202904201914ED0FFE7EF
:100B60000C980068012140F22842C4F2020290422F
:100B7000019143D0FFE70C980068012140F2404208
:100B8000C4F202029042019138D0FFE70C9800684D
:100B9000012140F25842C4F20202904201912DD04C
:100BA000FFE70C980068012140F27042C4F2020293
:100BB0009042019122D0FFE70C980068012140F299
:100BC0008842C4F202029042019117D0FFE70C98CC
:100BD0000068012140F2A042C4F202029042019159
:100BE0000CD0FFE70C9800684FF64831CBF6FD714A
:100BF0000844B0FA80F040090190FFE70198C0076F
:100C000000282BD0FFE70C98C06D00F01F003F219B
:100C100001FA00F0089988600C980068016821F4D6
:100C20008021016009980C99096848600C988068D7
:100C3000402809D1FFE70A980C99096888600B9849
:100C40000C990968C86008E00B980C9909688860DD
:100C50000A980C990968C860FFE784E00C9800685E
:100C6000012145F20842C5F60202904200914ED0A1
:100C7000FFE70C980068012145F21C42C5F602020C
:100C80009042009143D0FFE70C980068012145F2A3
:100C90003042C5F602029042009138D0FFE70C982E
:100CA0000068012145F24442C5F6020290420091DB
:100CB0002DD0FFE70C980068012145F25842C5F697
:100CC00002029042009122D0FFE70C9800680121B7
:100CD00045F26C42C5F602029042009117D0FFE740
:100CE0000C980068012145F28042C5F6020290424C
:100CF00000910CD0FFE70C9800684AF66C31CAF2FC
:100D0000FD710844B0FA80F040090090FFE70098B8
:100D1000C007002825D0FFE70C98C06D00F01F0029
:100D2000012101FA00F00799486009980C990968B7
:100D300048600C988068402809D1FFE70A980C9910
:100D4000096888600B980C990968C86008E00B98DE
:100D50000C99096888600A980C990968C860FFE7CF
:100D600000E0FFE7FFE70DB0B0BD000000000000AD
:100D700080B540F6D060C2F2004001F14DFB80BD6D
:100D800085B0014603900398426B01920068D0F849
:100D900084004FF6FC729043019A40EA8200039A65
:100DA0001268C2F8840003980068D0F8840020F428
:100DB0007F00039A1368926B40EA0240C3F88400F4
:100DC0000398826B019B1A4401920068D0F8880056
:100DD0006FF38F00019A40EA8200039A1268C2F80A
:100DE000880003980068D0F8880020F4FE00039A79
:100DF0001368D26B40EA0240C3F888000398C26BC4
:100E0000019B03EB420201920068D0F8A0006FF34F
:100E10008F00019A40EA8200039A1268C2F8A0008B
:100E200003980068D0F8A00020F4FE00039A13682D
:100E3000126C40EA0240C3F8A0000398026C436CB5
:100E4000DDF804C002FB03C201920068D0F8B000D4
:100E50006FF38F00019A40EA8200039A1268C2F889
:100E6000B00003980068D0F8B00020F4FE00039AA8
:100E70001368926C40EA0240C3F8B0000398826C99
:100E8000C36CDDF804C002FB03C201920068D0F815
:100E9000AC006FF38F00019A40EA8200039A126857
:100EA000C2F8AC000398026D436DDDF804C002FB8C
:100EB00003C201920068D0F8F0006FF38F00019A2E
:100EC00040EA8200039A1268C2F8F00003980068B2
:100ED000D0F8F00020F47C10039A1368926D40EA79
:100EE0000240C3F8F0000398826D019B03EB4202BD
:100EF00001920068D0F8C0006FF38F00019A40EAB9
:100F00008200039A1268C2F8C00003980068D0F803
:100F1000C00020F47C10039A1368D26D40EA0240AE
:100F2000C3F8C00003980068D0F8C00020F07C50DF
:100F3000039A1368126E40EA0260C3F8C000039877
:100F4000426B4AF60043C4F2000303EB8202C2661E
:100F50000398826BC36E03EB820202670398C26B35
:100F6000036F03EBC20242670398026C436CD0F834
:100F700074C05A430CEB820282670398826CC36C84
:100F8000D0F878C05A430CEB8202C2670398026D16
:100F9000436DD0F87CC05A430CEB8202C0F880202D
:100FA0000398826DD0F8803003EBC202C0F8842031
:100FB0000398C26D836ED0F884C05A430CEB820252
:100FC000C0F888200398026E836ED0F888C05A4318
:100FD0000CEB8202C0F890200398D0F890004DF2FC
:100FE000FD32C4F20002904200910FD3FFE7039854
:100FF000D0F89C1041F02001C0F89C100398032108
:1010000080F8981001208DF8130017E00398C06E47
:101010000290FFE702980399D1F89010884208D215
:10102000FFE7029800210160FFE702980430029078
:10103000F0E7FFE700208DF81300FFE79DF81300AD
:1010400005B070470000000080B584B001460390F1
:101050000020ADF80A0003980C220091114608F117
:1010600033F9ADF80A00BDF80A000399097BB1EB2A
:10107000102F4BD1FFE79DF80A000399497B884266
:1010800044D1FFE7039801684268806840F210038A
:10109000C2F2004398605A60196000200190FFE797
:1010A0000198052831DCFFE7019840F21001C2F2F7
:1010B000004131F81000B0F5FA7F0ADAFFE7019835
:1010C00040F21001C2F200414FF4FA7221F81020F0
:1010D00016E0019840F21001C2F2004131F8100010
:1010E00040F6C51188420ADBFFE7019840F2100183
:1010F000C2F2004140F6C41221F81020FFE7FFE7DA
:10110000FFE7019801300190CAE7FFE704B080BD16
:1011100080B58EB001460C90079102F141F808901D
:101120000C98002805D1FFE701208DF8370000F06A
:10113000B6BC0C9890F8350002280ED0FFE70C984A
:1011400080214165FFE70C98002180F83410FFE70B
:1011500001208DF8370000F0A2BC0C980068012136
:101160001022C4F202029042069100F0A380FFE731
:101170000C98006801212822C4F2020290420691D4
:1011800000F09880FFE70C98006801214022C4F22B
:1011900002029042069100F08D80FFE70C980068F3
:1011A00001215822C4F202029042069100F082808E
:1011B000FFE70C98006801217022C4F202029042FD
:1011C000069177D0FFE70C98006801218822C4F2CD
:1011D0000202904206916DD0FFE70C980068012151
:1011E000A022C4F202029042069163D0FFE70C985D
:1011F00000680121B822C4F202029042069159D03F
:10120000FFE70C980068012140F21042C4F202028C
:10121000904206914ED0FFE70C980068012140F201
:101220002842C4F202029042069143D0FFE70C9894
:101230000068012140F24042C4F20202904206914D
:1012400038D0FFE70C980068012140F25842C4F200
:101250000202904206912DD0FFE70C980068012110
:1012600040F27042C4F202029042069122D0FFE79F
:101270000C980068012140F28842C4F202029042B8
:10128000069117D0FFE70C980068012140F2A042B8
:10129000C4F20202904206910CD0FFE70C9800685D
:1012A0004FF64831CBF6FD710844B0FA80F04009A2
:1012B0000690FFE70698C007002810D0FFE70C98BB
:1012C0000068016821F01E0101600C980068416906
:1012D00021F0800141610C980068099009E00C98A8
:1012E0000068016821F00E0101600C980068099007
:1012F000FFE70C98006801211022C4F2020290421C
:10130000059100F00381FFE70C9800680121282275
:10131000C4F202029042059100F0F880FFE70C98B9
:10132000006801214022C4F202029042059100F0BF
:10133000ED80FFE70C98006801215822C4F20202F8
:101340009042059100F0E280FFE70C9800680121CF
:101350007022C4F202029042059100F0D780FFE7AC
:101360000C98006801218822C4F202029042059183
:1013700000F0CC80FFE70C9800680121A022C4F2A5
:1013800002029042059100F0C180FFE70C980068CE
:101390000121B822C4F202029042059100F0B68009
:1013A000FFE70C980068012140F21042C4F20202EB
:1013B0009042059100F0AA80FFE70C980068012197
:1013C00040F22842C4F202029042059100F09E8051
:1013D000FFE70C980068012140F24042C4F202028B
:1013E0009042059100F09280FFE70C98006801217F
:1013F00040F25842C4F202029042059100F0868009
:10140000FFE70C980068012140F27042C4F202022A
:10141000904205917AD0FFE70C980068012140F2D4
:101420008842C4F20202904205916FD0FFE70C9807
:101430000068012140F2A042C4F2020290420591EC
:1014400064D0FFE70C980068012140F2B842C4F272
:1014500002029042059159D0FFE70C9800680121E3
:1014600045F20842C5F60202904205914ED0FFE7D0
:101470000C980068012145F21C42C5F60202904218
:10148000059143D0FFE70C980068012145F23042F6
:10149000C5F602029042059138D0FFE70C9800682B
:1014A000012145F24442C5F60202904205912DD039
:1014B000FFE70C980068012145F25842C5F6020288
:1014C0009042059122D0FFE70C980068012145F277
:1014D0006C42C5F602029042059117D0FFE70C98C6
:1014E0000068012145F28042C5F602029042059152
:1014F0000CD0FFE70C9800684AF66C31CAF2FD7117
:101500000844B0FA80F040090590FFE70598C0074D
:10151000002807D0FFE70C98006E016821F4807165
:101520000160FFE70C9800681021C4F202018842B4
:1015300000F08180FFE70C9800682821C4F20201C6
:10154000884278D0FFE70C9800684021C4F202017D
:10155000884270D0FFE70C9800685821C4F202015D
:10156000884268D0FFE70C9800687021C4F202013D
:10157000884260D0FFE70C9800688821C4F202011D
:10158000884258D0FFE70C980068A021C4F20201FD
:10159000884250D0FFE70C980068B821C4F20201DD
:1015A000884248D0FFE70C98006840F21041C4F22E
:1015B000020188423FD0FFE70C98006840F22841C2
:1015C000C4F20201884236D0FFE70C98006840F26E
:1015D0004041C4F2020188422DD0FFE70C98006818
:1015E00040F25841C4F20201884224D0FFE70C982F
:1015F000006840F27041C4F2020188421BD0FFE74C
:101600000C98006840F28841C4F20201884212D06E
:10161000FFE70C98006840F2A041C4F20201884242
:1016200009D0FFE70C98006840F2B841C4F202010B
:10163000884209D1FFE70C980068016821F0010198
:101640000A460160049208E00C980068016821F0E5
:1016500001010A4601600392FFE7FFE7099800686D
:1016600010F0010F1BD0FFE701F19AFDDDF820E03B
:10167000A0EB0E00062811D3FFE70C98202141654E
:10168000FFE70C98002180F83410FFE70C98032145
:1016900080F8351001208DF8370000E2DEE70C9865
:1016A000006801211022C4F202029042029100F06F
:1016B000A380FFE70C98006801212822C4F20202EF
:1016C0009042029100F09880FFE70C980068012199
:1016D0004022C4F202029042029100F08D80FFE7A6
:1016E0000C98006801215822C4F202029042029133
:1016F00000F08280FFE70C98006801217022C4F29C
:1017000002029042029177D0FFE70C980068012115
:101710008822C4F20202904202916DD0FFE70C9839
:1017200000680121A022C4F202029042029163D01B
:10173000FFE70C9800680121B822C4F2020290422F
:10174000029159D0FFE70C980068012140F2104245
:10175000C4F20202904202914ED0FFE70C9800685A
:10176000012140F22842C4F202029042029143D089
:10177000FFE70C980068012140F24042C4F20202E7
:101780009042029138D0FFE70C980068012140F2A6
:101790005842C4F20202904202912DD0FFE70C9809
:1017A0000068012140F27042C4F2020290420291AC
:1017B00022D0FFE70C980068012140F28842C4F271
:1017C00002029042029117D0FFE70C9800680121B5
:1017D00040F2A042C4F20202904202910CD0FFE714
:1017E0000C9800684FF64831CBF6FD710844B0FA0A
:1017F00080F040090290FFE70298C00700280CD053
:10180000FFE70C98816D0B91C06D00F01F003F2128
:1018100001FA00F00B9988600BE00C98816D0A9139
:10182000C06D00F01F00012101FA00F00A99486024
:10183000FFE70C98006801211022C4F202029042D6
:10184000019100F00381FFE70C9800680121282234
:10185000C4F202029042019100F0F880FFE70C9878
:10186000006801214022C4F202029042019100F07E
:10187000ED80FFE70C98006801215822C4F20202B3
:101880009042019100F0E280FFE70C98006801218E
:101890007022C4F202029042019100F0D780FFE76B
:1018A0000C98006801218822C4F202029042019142
:1018B00000F0CC80FFE70C9800680121A022C4F260
:1018C00002029042019100F0C180FFE70C9800688D
:1018D0000121B822C4F202029042019100F0B680C8
:1018E000FFE70C980068012140F21042C4F20202A6
:1018F0009042019100F0AA80FFE70C980068012156
:1019000040F22842C4F202029042019100F09E800F
:10191000FFE70C980068012140F24042C4F2020245
:101920009042019100F09280FFE70C98006801213D
:1019300040F25842C4F202029042019100F08680C7
:10194000FFE70C980068012140F27042C4F20202E5
:10195000904201917AD0FFE70C980068012140F293
:101960008842C4F20202904201916FD0FFE70C98C6
:101970000068012140F2A042C4F2020290420191AB
:1019800064D0FFE70C980068012140F2B842C4F22D
:1019900002029042019159D0FFE70C9800680121A2
:1019A00045F20842C5F60202904201914ED0FFE78F
:1019B0000C980068012145F21C42C5F602029042D3
:1019C000019143D0FFE70C980068012145F23042B5
:1019D000C5F602029042019138D0FFE70C980068EA
:1019E000012145F24442C5F60202904201912DD0F8
:1019F000FFE70C980068012145F25842C5F6020243
:101A00009042019122D0FFE70C980068012145F235
:101A10006C42C5F602029042019117D0FFE70C9884
:101A20000068012145F28042C5F602029042019110
:101A30000CD0FFE70C9800684AF66C31CAF2FD71D1
:101A40000844B0FA80F040090190FFE70198C00710
:101A5000002815D0FFE70C98416E806E48600C9806
:101A6000C06E00280BD0FFE70C98C06E016821F40F
:101A7000807101600C98016F406F4860FFE7FFE7DD
:101A8000FFE70C98002180F83410FFE70C98012143
:101A900080F83510FFE700208DF83700FFE79DF84C
:101AA00037000EB080BD000082B001460190019861
:101AB000406D009102B0704780B592B00146109021
:101AC0000B9101F16DFB0E901098002805D1FFE7F6
:101AD00001208DF8470000F0B3BC10980068012188
:101AE0001022C4F2020290420A9100F0A380FFE7A4
:101AF0001098006801212822C4F2020290420A9143
:101B000000F09880FFE71098006801214022C4F29D
:101B1000020290420A9100F08D80FFE71098006861
:101B200001215822C4F2020290420A9100F0828000
:101B3000FFE71098006801217022C4F2020290426F
:101B40000A9177D0FFE71098006801218822C4F23B
:101B5000020290420A916DD0FFE7109800680121BF
:101B6000A022C4F2020290420A9163D0FFE71098CB
:101B700000680121B822C4F2020290420A9159D0B1
:101B8000FFE710980068012140F21042C4F20202FF
:101B900090420A914ED0FFE710980068012140F270
:101BA0002842C4F2020290420A9143D0FFE7109803
:101BB0000068012140F24042C4F2020290420A91C0
:101BC00038D0FFE710980068012140F25842C4F273
:101BD000020290420A912DD0FFE71098006801217F
:101BE00040F27042C4F2020290420A9122D0FFE712
:101BF00010980068012140F28842C4F2020290422B
:101C00000A9117D0FFE710980068012140F2A04226
:101C1000C4F2020290420A910CD0FFE710980068CB
:101C20004FF64831CBF6FD710844B0FA80F0400918
:101C30000A90FFE70A98C007002800F08281FFE7BA
:101C40001098406A002801D0FFE7FFE7FFE71098EF
:101C5000002180F83410FFE71098022180F8351039
:101C6000109800681021C4F20201884200F08180BF
:101C7000FFE7109800682821C4F20201884278D05A
:101C8000FFE7109800684021C4F20201884270D03A
:101C9000FFE7109800685821C4F20201884268D01A
:101CA000FFE7109800687021C4F20201884260D0FA
:101CB000FFE7109800688821C4F20201884258D0DA
:101CC000FFE710980068A021C4F20201884250D0BA
:101CD000FFE710980068B821C4F20201884248D09A
:101CE000FFE71098006840F21041C4F202018842F8
:101CF0003FD0FFE71098006840F22841C4F202018B
:101D0000884236D0FFE71098006840F24041C4F2A4
:101D1000020188422DD0FFE71098006840F2584138
:101D2000C4F20201884224D0FFE71098006840F214
:101D30007041C4F2020188421BD0FFE7109800688E
:101D400040F28841C4F20201884212D0FFE71098A5
:101D5000006840F2A041C4F20201884209D0FFE7C6
:101D60001098006840F2B841C4F20201884209D1DB
:101D7000FFE710980068016821F001010A46016040
:101D8000099208E010980068016821F001010A46F4
:101D900001600892FFE7FFE710980068006810F004
:101DA000010F15D0FFE701F1FBF9DDF838E0A0EBFA
:101DB0000E0006280BD3FFE71098202141651098EC
:101DC000032180F8351001208DF8470038E3E3E760
:101DD0001098006800680F900F9848F23F01CFF606
:101DE000106108400F9010988168C2680369D0F8AC
:101DF00014C01143194341EA0C0182691143C269BD
:101E00001143026A11430F9A11430F91406A04284B
:101E100008D1FFE71098C16A006B08430F99084387
:101E20000F90FFE741F20000C5F6004000684FF652
:101E3000FF718843B0F1005F41D3FFE7109840681D
:101E4000292807D3FFE71098406801212F28079120
:101E50002AD3FFE7109840683F2807D3FFE7109880
:101E600040680121432807911ED3FFE7109840687E
:101E7000472807D3FFE710984068012149280791B8
:101E800012D3FFE71098406800214F28069108D32D
:101E9000FFE7109840680021532838BF01210691C0
:101EA000FFE706980790FFE70798C007002805D0CE
:101EB000FFE70F9840F480100F90FFE7FFE70F98BF
:101EC0001099096808601098006840690F900F9891
:101ED00020F007000F901098416A0F9A11430F915C
:101EE000406A04281BD1FFE71098816A0F9A1143BA
:101EF0000F91C06A002811D0FFE71098FEF084FB14
:101F000000280AD0FFE71098402141651098012170
:101F100080F835108DF8471092E2FFE7FFE70F9841
:101F20001099096848611098FEF0C2F90D90109858
:101F3000C06D00F01F003F2101FA00F00D9988608C
:101F40002BE110980068012145F20842C5F6020213
:101F5000904205914ED0FFE710980068012145F2AC
:101F60001C42C5F602029042059143D0FFE710984B
:101F70000068012145F23042C5F602029042059107
:101F800038D0FFE710980068012145F24442C5F6B9
:101F90000202904205912DD0FFE7109800680121C0
:101FA00045F25842C5F602029042059122D0FFE761
:101FB00010980068012145F26C42C5F60202904279
:101FC000059117D0FFE710980068012145F2804283
:101FD000C5F60202904205910CD0FFE71098006808
:101FE0004AF66C31CAF2FD710844B0FA80F040093B
:101FF0000590FFE70598C007002800F0C280FFE7C2
:1020000010980068012145F20842C5F6020290428C
:1020100004914ED0FFE710980068012145F21C4260
:10202000C5F602029042049143D0FFE71098006881
:10203000012145F23042C5F602029042049138D0A7
:10204000FFE710980068012145F24442C5F60202FC
:10205000904204912DD0FFE710980068012145F2CD
:102060005842C5F602029042049122D0FFE7109830
:102070000068012145F26C42C5F6020290420491CB
:1020800017D0FFE710980068012145F28042C5F69D
:102090000202904204910CD0FFE7109800684AF6C3
:1020A0006C31CAF2FD710844B0FA80F04009049026
:1020B000FFE70498C007002801D0FFE7FFE7FFE72C
:1020C0001098002180F83410FFE71098022180F862
:1020D00035101098006800680F900F986FF310107B
:1020E0000F9010988068402803D1FFE710200390DC
:1020F00008E0109880688038B0FA80F040098003CA
:102100000390FFE703981099CA680B69D1F814C0CF
:10211000D1F818E040EAD20040EAD30040EADC00FF
:1021200040EADE00CA6940EAD2000A6A40EA1210B8
:102130000F9A10430F900F98096808601098016873
:102140004AF6F832CAF2FD7211444CF6CD42CCF692
:10215000CC42A1FB02124FF6FC73C3F6FF7303EAF5
:102160009202C26510980291FEF0A2F80C901098AD
:10217000C06D00F01F00012101FA00F00C994860C9
:102180000AE01098402141651098032180F835102D
:1021900001208DF8470053E1FFE710980068012106
:1021A0001022C4F202029042019100F00381FFE785
:1021B0001098006801212822C4F202029042019185
:1021C00000F0F880FFE71098006801214022C4F277
:1021D00002029042019100F0ED80FFE71098006844
:1021E00001215822C4F202029042019100F0E280E3
:1021F000FFE71098006801217022C4F202029042A9
:10220000019100F0D780FFE7109800680121882233
:10221000C4F202029042019100F0CC80FFE71098D6
:1022200000680121A022C4F202029042019100F054
:10223000C180FFE7109800680121B822C4F20202B1
:102240009042019100F0B680FFE7109800680121EC
:1022500040F21042C4F202029042019100F0AA80C2
:10226000FFE710980068012140F22842C4F2020200
:102270009042019100F09E80FFE7109800680121D4
:1022800040F24042C4F202029042019100F092807A
:10229000FFE710980068012140F25842C4F20202A0
:1022A0009042019100F08680FFE7109800680121BC
:1022B00040F27042C4F20202904201917AD0FFE7EC
:1022C00010980068012140F28842C4F20202904254
:1022D00001916FD0FFE710980068012140F2A04201
:1022E000C4F202029042019164D0FFE710980068A6
:1022F000012140F2B842C4F202029042019159D049
:10230000FFE710980068012145F20842C5F6020275
:10231000904201914ED0FFE710980068012145F2EC
:102320001C42C5F602029042019143D0FFE710988B
:102330000068012145F23042C5F602029042019147
:1023400038D0FFE710980068012145F24442C5F6F5
:102350000202904201912DD0FFE710980068012100
:1023600045F25842C5F602029042019122D0FFE7A1
:1023700010980068012145F26C42C5F602029042B5
:10238000019117D0FFE710980068012145F28042C3
:10239000C5F60202904201910CD0FFE71098006848
:1023A0004AF66C31CAF2FD710844B0FA80F0400977
:1023B0000190FFE70198C007002837D0FFE7109889
:1023C000FEF05EF810988068802804D1FFE710982E
:1023D00000214160FFE710980179006E01601098BC
:1023E000416E806E486010984068002815D0FFE765
:1023F00010984068082810D8FFE71098FEF780F979
:102400001098C06E4FF0000EC0F800E01098D0F8A1
:1024100070E0406FCEF8040007E010980021C1661C
:102420001098016710984167FFE7FFE710980021B7
:1024300041651098012280F835208DF84710FFE79C
:102440009DF8470012B080BDB0B590B09C4696464E
:102450000C4605460E900D910C920B9300208DF8C2
:102460002B000E980028CDF824C0CDF820E007946A
:10247000069504D1FFE701208DF83F0079E3FFE7DF
:102480000E9890F83400012804D1FFE702208DF85F
:102490003F006EE30E98012180F83410FFE7FFE75C
:1024A0000E9890F83500012840F05083FFE70E9811
:1024B000022180F835100E98002141650E980068C1
:1024C0001021C4F20201884200F08180FFE70E98DB
:1024D00000682821C4F20201884278D0FFE70E98F4
:1024E00000684021C4F20201884270D0FFE70E98D4
:1024F00000685821C4F20201884268D0FFE70E98B4
:1025000000687021C4F20201884260D0FFE70E9893
:1025100000688821C4F20201884258D0FFE70E9873
:102520000068A021C4F20201884250D0FFE70E9853
:102530000068B821C4F20201884248D0FFE70E9833
:10254000006840F21041C4F2020188423FD0FFE728
:102550000E98006840F22841C4F20201884236D049
:10256000FFE70E98006840F24041C4F20201884241
:102570002DD0FFE70E98006840F25841C4F20201E6
:10258000884224D0FFE70E98006840F27041C4F200
:10259000020188421BD0FFE70E98006840F2884194
:1025A000C4F20201884212D0FFE70E98006840F2A0
:1025B000A041C4F20201884209D0FFE70E980068EA
:1025C00040F2B841C4F20201884209D1FFE70E98F7
:1025D0000068016821F001010A460160059208E0E7
:1025E0000E980068016821F001010A46016004921A
:1025F000FFE70E980D990C9A0B9BFEF71DF90E98AC
:10260000006801211022C4F202029042039100F0FE
:10261000A380FFE70E98006801212822C4F202027D
:102620009042039100F09880FFE70E980068012126
:102630004022C4F202029042039100F08D80FFE735
:102640000E98006801215822C4F2020290420391C0
:1026500000F08280FFE70E98006801217022C4F22A
:1026600002029042039177D0FFE70E9800680121A3
:102670008822C4F20202904203916DD0FFE70E98C7
:1026800000680121A022C4F202029042039163D0AB
:10269000FFE70E9800680121B822C4F202029042BE
:1026A000039159D0FFE70E980068012140F21042D3
:1026B000C4F20202904203914ED0FFE70E980068E8
:1026C000012140F22842C4F202029042039143D019
:1026D000FFE70E980068012140F24042C4F2020276
:1026E0009042039138D0FFE70E980068012140F234
:1026F0005842C4F20202904203912DD0FFE70E9897
:102700000068012140F27042C4F20202904203913B
:1027100022D0FFE70E980068012140F28842C4F2FF
:1027200002029042039117D0FFE70E980068012142
:1027300040F2A042C4F20202904203910CD0FFE7A3
:102740000E9800684FF64831CBF6FD710844B0FA98
:1027500080F040090390FFE70398C007002816D0D7
:10276000FFE70E98006800680B2161F344000E99A2
:10277000096808600E98006C002807D0FFE70E98E3
:102780000068016841F008010160FFE715E00E985C
:1027900000680068052161F343000E99096808602C
:1027A0000E98006C002807D0FFE70E9800680168BB
:1027B00041F004010160FFE7FFE70E980068012186
:1027C0001022C4F202029042029100F00381FFE75E
:1027D0000E98006801212822C4F202029042029160
:1027E00000F0F880FFE70E98006801214022C4F253
:1027F00002029042029100F0ED80FFE70E9800681F
:1028000001215822C4F202029042029100F0E280BB
:10281000FFE70E98006801217022C4F20202904284
:10282000029100F0D780FFE70E980068012188220E
:10283000C4F202029042029100F0CC80FFE70E98B1
:1028400000680121A022C4F202029042029100F02D
:10285000C180FFE70E9800680121B822C4F202028D
:102860009042029100F0B680FFE70E9800680121C7
:1028700040F21042C4F202029042029100F0AA809B
:10288000FFE70E980068012140F22842C4F20202DC
:102890009042029100F09E80FFE70E9800680121AF
:1028A00040F24042C4F202029042029100F0928053
:1028B000FFE70E980068012140F25842C4F202027C
:1028C0009042029100F08680FFE70E980068012197
:1028D00040F27042C4F20202904202917AD0FFE7C5
:1028E0000E980068012140F28842C4F20202904230
:1028F00002916FD0FFE70E980068012140F2A042DC
:10290000C4F202029042029164D0FFE70E98006880
:10291000012140F2B842C4F202029042029159D021
:10292000FFE70E980068012145F20842C5F6020251
:10293000904202914ED0FFE70E980068012145F2C7
:102940001C42C5F602029042029143D0FFE70E9866
:102950000068012145F23042C5F602029042029120
:1029600038D0FFE70E980068012145F24442C5F6D1
:102970000202904202912DD0FFE70E9800680121DB
:1029800045F25842C5F602029042029122D0FFE77A
:102990000E980068012145F26C42C5F60202904291
:1029A000029117D0FFE70E980068012145F280429E
:1029B000C5F60202904202910CD0FFE70E98006823
:1029C0004AF66C31CAF2FD710844B0FA80F0400951
:1029D0000290FFE70298C00700281BD0FFE70E987F
:1029E000006E006810F4803F07D0FFE70E98006E7D
:1029F000016841F480710160FFE70E98C06E002805
:102A000007D0FFE70E98C06E016841F48071016045
:102A1000FFE7FFE70E9800681021C4F20201884228
:102A200000F08180FFE70E9800682821C4F20201BF
:102A3000884278D0FFE70E9800684021C4F2020176
:102A4000884270D0FFE70E9800685821C4F2020156
:102A5000884268D0FFE70E9800687021C4F2020136
:102A6000884260D0FFE70E9800688821C4F2020116
:102A7000884258D0FFE70E980068A021C4F20201F6
:102A8000884250D0FFE70E980068B821C4F20201D6
:102A9000884248D0FFE70E98006840F21041C4F227
:102AA000020188423FD0FFE70E98006840F22841BB
:102AB000C4F20201884236D0FFE70E98006840F267
:102AC0004041C4F2020188422DD0FFE70E98006811
:102AD00040F25841C4F20201884224D0FFE70E9828
:102AE000006840F27041C4F2020188421BD0FFE747
:102AF0000E98006840F28841C4F20201884212D068
:102B0000FFE70E98006840F2A041C4F2020188423B
:102B100009D0FFE70E98006840F2B841C4F2020104
:102B2000884209D1FFE70E980068016841F0010171
:102B30000A460160019208E00E980068016841F0C1
:102B400001010A4601600092FFE70DE0FFE70E98E1
:102B5000002180F83410FFE70E984FF400614165C2
:102B600001208DF82B00FFE79DF82B008DF83F002A
:102B7000FFE79DF83F0010B0B0BD0000000000006E
:102B800080B584B001460390009100F109FB0290EA
:102B90000398019001980130002809D0FFE740F226
:102BA000B420C2F200400078019908440190FFE788
:102BB000FFE700F1F5FADDF808E0A0EB0E00DDF824
:102BC00004E0704501D2FFE7F3E704B080BD0000E8
:102BD00080B588B013468C468646069005910492CF
:102BE000069890F898008DF80F009DF80F000128C6
:102BF0000293CDF804C0CDF800E005D0FFE79DF8C2
:102C00000F0002285CD1FFE7059806990968896DD5
:102C1000084207D1FFE706980068C16D41F0010145
:102C2000C16515E0059806990968896D0840059900
:102C3000884207D1FFE706980068C16D41F00201A4
:102C4000C16504E0069800680321C165FFE7FFE75E
:102C50009DF815008007002809D5FFE7049806991C
:102C60000968D1F8E0201043C1F8E000FFE79DF8C3
:102C700015004007002809D5FFE704980699096860
:102C8000D1F8E4201043C1F8E400FFE7FFE705981E
:102C90004FF6FF71C3F6CF710840069909684A6D77
:102CA0001043486505984AF61401C4F200010A6809
:102CB00042EA90700860FFE700208DF81F000AE0EC
:102CC0000698D0F89C1041F00201C0F89C10012039
:102CD0008DF81F00FFE79DF81F0008B080BD0000C1
:102CE00084B00A460346039002910192009304B017
:102CF000704700000000000089B00A4603460790B4
:102D00000691079890F898008DF80B009DF80B003D
:102D100001280192009305D0FFE79DF80B000228DF
:102D20006AD1FFE70698C068072801D1FFE7FFE7EF
:102D30000698006800282FD1FFE70698C06807288A
:102D400001D0FFE7FFE70698C06807280CD1FFE72E
:102D5000069801698269C069090441EA00201043AC
:102D600040F0605005900CE006988168C2680369E5
:102D70004069890741EAC26141EA0341084305907D
:102D8000FFE70798C06E0699496800EB8100039041
:102D90000598039908602BE00698C068072801D0C1
:102DA000FFE7FFE70698C168026942EA41710591B1
:102DB000C068072804D1FFE706988069049006E000
:102DC00006988168406940EA81700490FFE707989F
:102DD000006F0699496800EBC100039005980399BC
:102DE0000860039804300390049803990860FFE793
:102DF00000208DF823000AE00798D0F89C1041F0DD
:102E00000201C0F89C1001208DF82300FFE79DF817
:102E1000230009B07047000070B58AB0DDF838C0F3
:102E20009E4614460D460646089007910692059365
:102E3000089890F898000128CDF810E003940295C6
:102E40000196CDF800C012D1FFE70798000106995E
:102E500040EA8100059940EA41000E99084308992B
:102E60000968C1F8800000208DF827000AE0089862
:102E7000D0F89C1041F00401C0F89C1001208DF89E
:102E80002700FFE79DF827000AB070BD0000000092
:102E900082B001460190009102B07047000000002E
:102EA00080B586B00146049004980028019104D1B1
:102EB000FFE701208DF81700F7E1049800684AF257
:102EC0000001C4F20001884206D1FFE704980168BE
:102ED00001F580714160FFE704988068B0F5407F9C
:102EE00001D1FFE7FFE70498006C002801D0FFE75D
:102EF000FFE70498806C002801D0FFE7FFE7049803
:102F0000006D002801D0FFE7FFE70498006E00285D
:102F100001D0FFE7FFE70498C16D006E0844002868
:102F200001D0FFE7FFE7049890F89800002808D147
:102F3000FFE70498002180F899100498FFF048FDFD
:102F4000FFE704980068816921F01001816100F1B8
:102F500027F90390FFE704980068806910F0080FD4
:102F600019D0FFE700F11CF9DDF80CE0A0EB0E0032
:102F70000B280FD3FFE70498D0F89C1041F0010113
:102F8000C0F89C100498032180F8981001208DF857
:102F900017008AE1DFE704980068816941F00101C8
:102FA000816100F1FDF80390FFE7049800688069F3
:102FB00010F0010F19D1FFE700F1F2F8DDF80CE095
:102FC000A0EB0E000B280FD3FFE70498D0F89C105D
:102FD00041F00101C0F89C100498032180F898107A
:102FE00001208DF8170060E1DFE70498006881692F
:102FF00041F0020181610498007C012807D1FFE7BC
:1030000004980068816921F04001816106E004981C
:103010000068816941F040018161FFE70498407CCC
:10302000012807D1FFE704980068816941F48041D5
:10303000816106E004980068816921F48041816122
:10304000FFE70498807C012807D1FFE70498006817
:10305000816921F48051816106E0049800688169EA
:1030600041F480518161FFE704980068806920F491
:10307000407004990A688968084390610498006860
:10308000816921F0A401816104980068016921F03F
:10309000100101610498C068012807D1FFE7049876
:1030A0000068816941F0040181612CE00498C068E6
:1030B000002826D0FFE70498C068022819D0FFE74F
:1030C00004980068816941F080018161049800687A
:1030D000016941F0100101610498C068032807D11B
:1030E000FFE704980068816941F020018161FFE7F2
:1030F00006E004980068816941F020018161FFE7E2
:1031000000E0FFE7FFE70498016842698369D0F8AF
:103110001CC04FF07E4E0EEB43636FF0FF0E0EEBC4
:103120000C2C43EA0C03006A013818430023CFF645
:10313000FF7303EB02421043C86104988068B0F546
:10314000407F1BD1FFE704980168426A836AD0F888
:103150002CC0013B6FF0FF0E0EEB0C2C43EA0C036E
:10316000006B6FF00F0C0CEB001018430023CFF630
:10317000FF7303EB02421043C860FFE70498006E40
:10318000002809D0FFE704980168406ED1F8C020FC
:103190001043C1F8C000FFE70498C16D006E0844F9
:1031A000002813D0FFE704980068D0F8C80020F08A
:1031B000070004990A68896E49F62003C0F60003E7
:1031C00053F821100843C2F8C800FFE70498006CC8
:1031D000002813D0FFE704980068D0F8BC0020F066
:1031E000070004990A68496C49F62003C0F60003F9
:1031F00053F821100843C2F8BC00FFE70498806C24
:10320000002814D0FFE704980068D0F8BC0020F034
:10321000700004990A68C96C49F62003C0F60003DF
:1032200053F8211040EA0110C2F8BC00FFE70498EF
:10323000006D002814D0FFE704980068D0F8BC00A7
:1032400020F4E06004990A68496D49F62003C0F64D
:10325000000353F8211040EA0120C2F8BC00FFE748
:10326000049800684AF20001C4F20001884207D1C4
:10327000FFE704984068816821F003018160FFE75F
:1032800004980021C0F894100498C0F89C10049889
:10329000012180F898100498FDF772FD8DF80B005D
:1032A0009DF80B008DF81700FFE79DF8170006B09A
:1032B00080BD00000000000082B001460190009136
:1032C00002B070470000000083B0014601900198F1
:1032D00090F898000128009111D1FFE70198022190
:1032E00080F8981001980068816921F001018161DE
:1032F00001980021C0F89C108DF80B100AE001988D
:10330000D0F89C1041F00401C0F89C1001208DF809
:103310000B00FFE79DF80B0003B0704700000000B2
:1033200084B00A460346039002910192009304B0D0
:10333000704700000000000084B00A460346039076
:1033400002910192009304B0704700000000000059
:1033500082B001460190009102B070470000000069
:1033600084B00A460346039002910192009304B090
:10337000704700000000000084B00A460346039036
:1033800002910192009304B0704700000000000019
:1033900040F2B420C2F20040007841F28841C2F20B
:1033A00000410A68104408607047000000000000F7
:1033B00080B582B001460190019840784EF698524F
:1033C000CEF20002106001980078002800912BD006
:1033D000FFE7019840684EF69C51CEF2000108606C
:1033E0000198017B0907C27A41EA02610278037AF7
:1033F00090F809C090F80AE041EACE4190F80DE05B
:1034000041EA8E4190F80EE041EA4E41C07B41EA2C
:10341000004040EA0C2040EA430010434EF6A05121
:10342000CEF2000108600BE04EF69C50CEF2000098
:10343000002101604EF6A050CEF200000160FFE7CF
:1034400002B080BD0000000082B0014601900198EA
:1034500040F001004EF69452CEF2000210604EF69B
:103460002450CEF20000026842F480320260BFF3C2
:103470004F8FBFF36F8F009102B0704700000000C4
:1034800082B0FFE744F2F440C5F60200016841F063
:1034900002010160006800F00200019001980090B4
:1034A000FFE702B07047000080B58AB013468C4633
:1034B0008646ADF82600089107920593CDF810C016
:1034C000CDF80CE005F19CFE069006980899079A45
:1034D000BDF92630029303F187FB0299019008465B
:1034E000019905F195FE0AB080BD000000000000C2
:1034F00080B501F06DF944F2204EC5F6020EDEF8FB
:1035000000E0CEF3021E49F61001C0F6000111F8EA
:103510000E1001F01F01C84080BD00000000000037
:1035200089B00146089044F22840C5F602000268BE
:1035300002F0030207920068C0F30530069044F2DF
:103540002C40C5F602000068C0F3001005900598F5
:1035500044F23C42C5F602021268C2F3CC02504368
:1035600000EE100AB8EE400A8DED030A0698002816
:10357000019100F02481FFE707980028009009D00E
:10358000FFE7009801286BD0FFE70098022800F0C1
:103590008C80AFE044F20040C5F60200006800F005
:1035A00020000021B1EB501F34D0FFE744F200406F
:1035B000C5F602000068C0F3C10049F20001C0F284
:1035C000D03121FA00F004909DED040AB8EE400AD3
:1035D0009DED061AB8EE411A80EE010A44F2384019
:1035E000C5F6020000686FF35F2001EE100AB8EE26
:1035F000411A9DED032A9FED783A82EE032A31EEBF
:10360000021AB7EE002A31EE021A20EE010A8DED01
:10361000020A24E0069800EE100AB8EE400A9FED78
:10362000701A81EE000A44F23840C5F602000068C4
:103630006FF35F2001EE100AB8EE411A9DED032AE8
:103640009FED653A82EE032A31EE021AB7EE002AA8
:1036500031EE021A20EE010A8DED020AFFE76EE05C
:10366000069800EE100AB8EE400A9FED5C1A81EE53
:10367000000A44F23840C5F6020000686FF35F208C
:1036800001EE100AB8EE411A9DED032A9FED523A61
:1036900082EE032A31EE021AB7EE002A31EE021A48
:1036A00020EE010A8DED020A49E0069800EE100AAC
:1036B000B8EE400A9FED471A81EE000A44F2384006
:1036C000C5F6020000686FF35F2001EE100AB8EE45
:1036D000411A9DED032A9FED403A82EE032A31EE16
:1036E000021AB7EE002A31EE021A20EE010A8DED21
:1036F000020A24E0069800EE100AB8EE400A9FED98
:10370000371A81EE000A44F23840C5F6020000681C
:103710006FF35F2001EE100AB8EE411A9DED032A07
:103720009FED2D3A82EE032A31EE021AB7EE002AFF
:1037300031EE021A20EE010A8DED020AFFE79DED3F
:10374000020A44F23840C5F602000168C1F346217E
:1037500001EE101AB8EE411AB7EE002A31EE021A45
:1037600080EE010ABCEEC00A10EE101A089A116031
:103770009DED020A0168C1F3064101EE101AB8EE90
:10378000411A31EE021A80EE010ABCEEC00A10EEB8
:10379000101A089A51609DED020A0068C0F3066095
:1037A00001EE100AB8EE411A31EE021A80EE010A5B
:1037B000BCEEC00A10EE100A0899886007E008986D
:1037C000002101600898416008988160FFE709B016
:1037D000704700BF0024F44A000000460024744AE9
:1037E0000024744C0000000080B59EB001461C907F
:1037F00000208DF867008DF866001C9800680001B5
:10380000002818914AD5FFE71C98406E00281790B1
:103810000FD0FFE71798B0F5801F13D0FFE7179878
:10382000B0F5001F16D0FFE71798B0F5401F19D06C
:1038300019E044F22C40C5F60200016841F4003161
:10384000016014E01C980430022103F06DFD8DF836
:1038500067000CE01C982430022103F051FE8DF823
:10386000670004E003E001208DF86700FFE79DF8A2
:10387000670000280CD1FFE744F25040C5F6020073
:10388000016821F440111C9A526E1143016004E05A
:103890009DF867008DF86600FFE7FFE71C98006859
:1038A000C005002841D5FFE71C98406D04281690FC
:1038B00020D81699DFE801F0030C141C1D0044F217
:1038C0002C40C5F60200016841F40031016015E0AA
:1038D0001C980430002103F027FD8DF867000DE0EF
:1038E0001C982430002103F00BFE8DF8670005E0E2
:1038F00004E003E001208DF86700FFE79DF8670012
:1039000000280CD1FFE744F25040C5F602000168E0
:1039100021F007011C9A526D1143016004E09DF8EB
:1039200067008DF86600FFE7FFE71C9800688005D8
:1039300000284DD5FFE71C98806D0028159011D008
:10394000FFE71598402816D0FFE7159880281AD071
:10395000FFE71598C0281ED0FFE71598B0F5807FC7
:103960001AD01AE044F22C40C5F60200016841F476
:103970000031016015E01C980430002103F0D4FCF4
:103980008DF867000DE01C982430002103F0B8FD8D
:103990008DF8670005E004E003E001208DF8670082
:1039A000FFE79DF8670000280CD1FFE744F2504084
:1039B000C5F60200016821F4E0711C9A926D114372
:1039C000016004E09DF867008DF86600FFE7FFE7FF
:1039D0001C9800684005002852D5FFE71C98D0F8D5
:1039E000A4000028149014D0FFE71498B0F5001F2D
:1039F00018D0FFE71498B0F5800F1BD0FFE714989C
:103A0000B0F5C00F1ED0FFE71498B0F5000F1AD024
:103A10001AE044F22C40C5F60200016841F400317E
:103A2000016015E01C980430002103F07DFC8DF846
:103A300067000DE01C982430002103F061FD8DF833
:103A4000670005E004E003E001208DF86700FFE770
:103A50009DF8670000280DD1FFE744F25840C5F6F5
:103A60000200016821F460011C9AD2F8A4201143DD
:103A7000016004E09DF867008DF86600FFE7FFE74E
:103A80001C9800680005002852D5FFE71C98D0F864
:103A9000A8000028139014D0FFE71398B0F1807F9E
:103AA00018D0FFE71398B0F1007F1BD0FFE7139801
:103AB000B0F1407F1ED0FFE71398B0F1806F1AD0AD
:103AC0001AE044F22C40C5F60200016841F40031CE
:103AD000016015E01C980430002103F025FC8DF8EE
:103AE00067000DE01C982430002103F009FD8DF8DB
:103AF000670005E004E003E001208DF86700FFE7C0
:103B00009DF8670000280DD1FFE744F25840C5F644
:103B10000200016821F0E0611C9AD2F8A82011434C
:103B2000016004E09DF867008DF86600FFE7FFE79D
:103B30001C9800688001002840D5FFE71C98806C25
:103B4000002812901ED0FFE71298102808D0FFE737
:103B5000129820280DD0FFE71298302811D012E0DB
:103B600044F22C40C5F60200016841F400310160C6
:103B70000DE01C980430022103F0D6FB8DF867009D
:103B800005E004E003E001208DF86700FFE79DF801
:103B9000670000280CD1FFE744F24C40C5F6020054
:103BA000016821F030011C9A926C1143016004E01D
:103BB0009DF867008DF86600FFE7FFE71C98006836
:103BC000C004002850D5FFE71C98C06D0028119054
:103BD00014D0FFE71198B0F5805F18D0FFE7119877
:103BE000B0F5005F1BD0FFE71198B0F5405F1ED025
:103BF000FFE71198B0F5804F1AD01AE044F22C403C
:103C0000C5F60200016841F40031016015E01C981E
:103C10000430002103F088FB8DF867000DE01C984C
:103C20002430002103F06CFC8DF8670005E004E00F
:103C300003E001208DF86700FFE79DF8670000288A
:103C40000CD1FFE744F25040C5F60200016821F4B0
:103C5000E0411C9AD26D1143016004E09DF86700B9
:103C60008DF86600FFE7FFE71C98006880040028D5
:103C70004ED5FFE71C98006E0028109019D0FFE782
:103C80001098B0F5803F15D0FFE71098B0F5003FD1
:103C900018D0FFE71098B0F5403F1BD0FFE7109811
:103CA000B0F5802F17D0FFE71098B0F5A02F13D0F4
:103CB00013E016E01C980430012103F035FB8DF869
:103CC00067000EE01C982430012103F019FC8DF8E8
:103CD000670006E005E004E003E001208DF86700DE
:103CE000FFE79DF8670000280CD1FFE744F2504041
:103CF000C5F60200016821F4E0211C9A126E1143FE
:103D0000016004E09DF867008DF86600FFE7FFE7BB
:103D10001C9800684004002850D5FFE71C98D0F894
:103D2000AC0000280F9019D0FFE70F98B0F1805F2A
:103D300015D0FFE70F98B0F1005F18D0FFE70F989C
:103D4000B0F1405F1BD0FFE70F98B0F1804F17D064
:103D5000FFE70F98B0F1A04F13D013E016E01C98C6
:103D60000430012103F0E0FA8DF867000EE01C98A2
:103D70002430012103F0C4FB8DF8670006E005E064
:103D800004E003E001208DF86700FFE79DF867007D
:103D900000280DD1FFE744F25840C5F60200016843
:103DA00021F0E0411C9AD2F8AC201143016004E0FC
:103DB0009DF867008DF86600FFE7FFE71C98006834
:103DC000000400283DD5FFE71C98C06E00280E9027
:103DD0001BD0FFE70E98B0F1805F05D0FFE70E988B
:103DE000B0F1005F09D011E044F22C40C5F60200AA
:103DF000016841F4003101600CE01C98043001219D
:103E000003F092FA8DF8670004E003E001208DF8DA
:103E10006700FFE79DF8670000280CD1FFE744F238
:103E20005040C5F60200016821F040511C9AD26E44
:103E30001143016004E09DF867008DF86600FFE71C
:103E4000FFE71C980068C001002838D5FFE71C98E0
:103E5000406C03280D9017D80D99DFE801F014028B
:103E60000B1344F22C40C5F60200016841F4003106
:103E700001600DE01C980430022103F055FA8DF822
:103E8000670005E004E003E001208DF86700FFE72C
:103E90009DF8670000280CD1FFE744F24C40C5F6BE
:103EA0000200016821F003011C9A526C1143016069
:103EB00004E09DF867008DF86600FFE7FFE71C98B7
:103EC00000684002002840F1BD80FFE744F6000092
:103ED000C5F60200016841F480710160FFF060F9ED
:103EE0001A90FFE744F60000C5F60200006810F4DF
:103EF000807F0ED1FFE7FFF053F9DDF868E0A0EB1B
:103F00000E00652804D3FFE703208DF8670000E06A
:103F1000E8E79DF86700002840F08E80FFE744F254
:103F20007040C5F60200006800F440701C99D1F89A
:103F3000B01001F44071884213D0FFE744F27040A2
:103F4000C5F60200016821F440711B91016841F43B
:103F500080310160016821F4803101601B990160AA
:103F6000FFE71C98D0F8B000B0F5807F21D1FFE7C3
:103F7000FFF016F91A90FFE744F27040C5F6020010
:103F8000006800F002000021B1EB500F10D1FFE7F4
:103F9000FFF006F9DDF868E0A0EB0E0041F2893E83
:103FA000704504D3FFE703208DF8670000E0E3E7E6
:103FB000FFE79DF86700002838D1FFE7FFE71C986E
:103FC000D0F8B00000F44070B0F5407F15D1FFE7A5
:103FD00044F21040C5F60200016821F47C511C9A9D
:103FE000D2F8B0204FF6F043C0F6FF731A4041EA12
:103FF00012110A4601600C920AE044F21040C5F624
:104000000200016821F47C510A4601600B92FFE72F
:104010001C98D0F8B0006FF31F3044F27041C5F621
:1040200002010A6810430860FFE704E09DF867009A
:104030008DF86600FFE704E09DF867008DF86600E4
:10404000FFE7FFE71C980068C007002800F04D80DC
:10405000FFE71C98806F28280A902BD80A99DFE880
:1040600001F0152929292929292916292929292948
:1040700029291E29292929292929262929292929BE
:1040800029292729292929292929280016E01C98C6
:104090000430012103F048F98DF867000EE01C9808
:1040A0002430012103F02CFA8DF8670006E005E0CA
:1040B00004E003E001208DF86700FFE79DF867004A
:1040C00000280CD1FFE744F25440C5F60200016815
:1040D00021F038011C9A926F1143016004E09DF8B1
:1040E00067008DF86600FFE7FFE71C98006880070F
:1040F00000283AD5FFE71C98406F0528099019D889
:104100000999DFE801F003040C14151616E01C9859
:104110000430012103F008F98DF867000EE01C98C7
:104120002430012103F0ECF98DF8670006E005E08A
:1041300004E003E001208DF86700FFE79DF86700C9
:1041400000280CD1FFE744F25440C5F60200016894
:1041500021F007011C9A526F1143016004E09DF8A1
:1041600067008DF86600FFE7FFE71C9800684007CE
:1041700000283CD5FFE71C98D0F89000052808904F
:1041800019D80899DFE801F003040C14151616E09D
:104190001C980430012103F0C7F88DF867000EE089
:1041A0001C982430012103F0ABF98DF8670006E07C
:1041B00005E004E003E001208DF86700FFE79DF8CB
:1041C000670000280DD1FFE744F25840C5F6020011
:1041D000016821F007011C9AD2F890201143016078
:1041E00004E09DF867008DF86600FFE7FFE71C9884
:1041F00000688006002850D5FFE71C98D0F88C0096
:104200000028079019D0FFE70798B0F1805F15D01C
:10421000FFE70798B0F1005F18D0FFE70798B0F10B
:10422000405F1BD0FFE70798B0F1804F17D0FFE742
:104230000798B0F1A04F13D013E016E01C9804309B
:10424000002103F071F88DF867000EE01C9824300F
:10425000022103F055F98DF8670006E005E004E05F
:1042600003E001208DF86700FFE79DF86700002854
:104270000DD1FFE744F25440C5F60200016821F079
:10428000E0411C9AD2F88C201143016004E09DF8B3
:1042900067008DF86600FFE7FFE71C98006840069E
:1042A000002850D5FFE71C98D0F898000028069009
:1042B00019D0FFE70698B0F5806F15D0FFE7069894
:1042C000B0F5006F18D0FFE70698B0F5406F1BD02F
:1042D000FFE70698B0F5805F17D0FFE70698B0F5C6
:1042E000A05F13D013E016E01C980430002103F007
:1042F0001BF88DF867000EE01C982430022103F0B3
:10430000FFF88DF8670006E005E004E003E0012017
:104310008DF86700FFE79DF8670000280DD1FFE7E3
:1043200044F25840C5F60200016821F4E0511C9A9D
:10433000D2F898201143016004E09DF867008DF8E1
:104340006600FFE7FFE71C9800680006002850D5CC
:10435000FFE71C98D0F89C000028059019D0FFE7D3
:104360000598B0F5005F15D0FFE70598B0F5804FD0
:1043700018D0FFE70598B0F5C04F1BD0FFE70598B0
:10438000B0F5004F17D0FFE70598B0F5204F13D0D8
:1043900013E016E01C980430002102F0C5FF8DF8F0
:1043A00067000EE01C982430022103F0A9F88DF874
:1043B000670006E005E004E003E001208DF86700F7
:1043C000FFE79DF8670000280DD1FFE744F2584051
:1043D000C5F60200016821F460411C9AD2F89C20C5
:1043E0001143016004E09DF867008DF86600FFE767
:1043F000FFE71C9800680007002821D5FFE71C98FC
:10440000D0F88000B0F5805F0DD1FFE71C98243014
:10441000022103F075F8002804D0FFE701208DF891
:104420006600FFE7FFE744F25440C5F6020001686A
:1044300021F440511C9AD2F8802011430160FFE71B
:104440001C980068C006002821D5FFE71C98D0F80A
:104450009400B0F5807F0DD1FFE71C982430022135
:1044600003F04EF8002804D0FFE701208DF8660025
:10447000FFE7FFE744F25840C5F60200016821F467
:1044800040711C9AD2F8942011430160FFE71C98F8
:104490000068000300283ED5FFE71C98D0F8A00074
:1044A000002804900AD0FFE70498B0F5803F0DD0B3
:1044B000FFE70498B0F5003F10D010E01C980430DE
:1044C000002102F031FF8DF867000CE01C982430C9
:1044D000022103F015F88DF8670004E003E00120E5
:1044E0008DF86700FFE79DF8670000280DD1FFE712
:1044F00044F25840C5F60200016821F440311C9A8C
:10450000D2F8A0201143016004E09DF867008DF807
:104510006600FFE7FFE71C9800684003002840D5CD
:10452000FFE71C98D0F88400B0F5801F03900AD0F4
:10453000FFE70398B0F5001F0ED0FFE70398B0F532
:10454000401F11D011E044F22C40C5F60200016872
:1045500041F4003101600CE01C982430012102F08C
:10456000CFFF8DF8670004E003E001208DF86700BD
:10457000FFE79DF8670000280DD1FFE744F25440A3
:10458000C5F60200016821F440111C9AD2F884207B
:104590001143016004E09DF867008DF86600FFE7B5
:1045A000FFE71C980068C003002837D5FFE71C9878
:1045B000C06C0028029005D0FFE70298B0F5803F5C
:1045C00009D010E044F22C40C5F60200016841F425
:1045D000003101600BE01C980430022102F0A4FEBF
:1045E0008DF8670003E001208DF86700FFE79DF874
:1045F000670000280CD1FFE744F24C40C5F60200EA
:10460000016821F480311C9AD26C1143016004E0EE
:104610009DF867008DF86600FFE7FFE71C980068CB
:10462000800000280DD5FFE71C982430022102F0FD
:1046300067FF002804D0FFE701208DF86600FFE740
:10464000FFE71C980068800300283CD5FFE71C9812
:10465000C06F002801901AD0FFE70198B0F5807F65
:104660000AD0FFE70198B0F5007F0ED0FFE7019870
:10467000B0F5407F0AD00BE044F22C40C5F60200B2
:10468000016841F40031016006E005E004E003E068
:1046900001208DF86700FFE79DF8670000280CD126
:1046A000FFE744F25440C5F60200016821F440716E
:1046B0001C9AD26F1143016004E09DF867008DF8E9
:1046C0006600FFE7FFE71C980068C00200280CD5D1
:1046D000FFE744F25040C5F60200016821F00041B6
:1046E0001C9A126F11430160FFE71C980068C0001C
:1046F00000280DD5FFE744F21040C5F6020001681E
:1047000021F480411C9AD2F8B42011430160FFE7E4
:104710001C980068800200280CD5FFE744F2504046
:10472000C5F60200016821F080711C9A926E114357
:104730000160FFE71C9800684000002811D5FFE7E2
:10474000FFE744F21040C5F60200016821F4004181
:1047500001601C99D1F8B810026811430160FFE7AD
:10476000FFE71C980068C00F00280CD0FFE744F258
:104770004C40C5F60200016821F040511C9A126DB0
:1047800011430160FFE71C980068000200280DD566
:10479000FFE744F25440C5F60200016821F44001ED
:1047A0001C9AD2F8882011430160FFE79DF866004B
:1047B000002804D1FFE700208DF8770003E00120F6
:1047C0008DF87700FFE79DF877001EB080BD0000F0
:1047D00080B582B000F040F844F2184EC5F6020EE3
:1047E000DEF80010C1F3032149F61002C0F6000202
:1047F000515C01F01F01C84001900198DEF80010E3
:1048000001F00F01515C01F01F01C84040F2B021DE
:10481000C2F200410860019840F2AC22C2F20042AC
:104820001060086802B080BD80B5FFF7D1FF44F288
:104830001C4EC5F6020EDEF800E0CEF3021E49F66D
:104840001001C0F6000111F80E1001F01F01C84060
:1048500080BD0000000000008AB044F21040C5F6A0
:104860000200006800F0380001461828019100F2AB
:1048700072810199DFE811F019006F016F016F017A
:104880006F016F016F016F013B006F016F016F01DD
:104890006F016F016F016F0141006F016F016F01C7
:1048A0006F016F016F016F01470044F20040C5F6D0
:1048B0000200006800F020000021B1EB501F0FD073
:1048C000FFE744F20040C5F602000068C0F3C100F3
:1048D00049F20001C0F2D03121FA00F0029005E067
:1048E00049F20000C0F2D0300290FFE739E140F613
:1048F0000010C0F23D00029033E141F20020C0F20E
:104900007A0002902DE144F22840C5F602000168C9
:1049100001F0030108910068C0F30510079044F20C
:104920002C40C5F60200006800F0010006900698D1
:1049300044F23441C5F602010968C1F3CC01484391
:1049400000EE100AB8EE400A8DED040A0798002820
:1049500000F0FD80FFE708980028009009D0FFE7ED
:10496000009801286BD0FFE70098022800F08C80A7
:10497000AFE044F20040C5F60200006800F02000FD
:104980000021B1EB501F34D0FFE744F20040C5F6E0
:1049900002000068C0F3C10049F20001C0F2D0314A
:1049A00021FA00F005909DED050AB8EE400A9DED54
:1049B000071AB8EE411A80EE010A44F23040C5F6FB
:1049C000020000686FF35F2001EE100AB8EE411A92
:1049D0009DED042A9FED653A82EE032A31EE021A1C
:1049E000B7EE002A31EE021A20EE010A8DED030A1D
:1049F00024E0079800EE100AB8EE400A9FED5D1A19
:104A000081EE000A44F23040C5F6020000686FF300
:104A10005F2001EE100AB8EE411A9DED042A9FEDC9
:104A2000533A82EE032A31EE021AB7EE002A31EE33
:104A3000021A20EE010A8DED030AFFE76EE00798E7
:104A400000EE100AB8EE400A9FED491A81EE000A06
:104A500044F23040C5F6020000686FF35F2001EEBB
:104A6000100AB8EE411A9DED042A9FED403A82EEFD
:104A7000032A31EE021AB7EE002A31EE021A20EEB6
:104A8000010A8DED030A49E0079800EE100AB8EE1E
:104A9000400A9FED351A81EE000A44F23040C5F617
:104AA000020000686FF35F2001EE100AB8EE411AB1
:104AB0009DED042A9FED2D3A82EE032A31EE021A73
:104AC000B7EE002A31EE021A20EE010A8DED030A3C
:104AD00024E0079800EE100AB8EE400A9FED241A71
:104AE00081EE000A44F23040C5F6020000686FF320
:104AF0005F2001EE100AB8EE411A9DED042A9FEDE9
:104B00001B3A82EE032A31EE021AB7EE002A31EE8A
:104B1000021A20EE010A8DED030AFFE744F230404D
:104B2000C5F60200006800F47E40012101EB502030
:104B300009909DED030A9DED091AB8EE411A80EE29
:104B4000010ABCEEC00A10EE100A029002E000203A
:104B50000290FFE705E040F60010C0F23D00029031
:104B6000FFE702980AB070470024F44A00000046AC
:104B70000024744A0024744C80B582B00146019030
:104B80000198009102F1E4F902B080BD000000003C
:104B900082B001460190009102B070470000000011
:104BA00082B001460190009102B070470000000001
:104BB00080B584B001460390039800680022C4F2D7
:104BC00001029042019140F0A581FFE70398007F28
:104BD000012863D1FFE740F28F20C2F20040007845
:104BE00000281BD0FFE703980068406B40F2D421F7
:104BF000C2F20041086041F20000C5F602004FF425
:104C00000071FEF06DFA012807D1FFE740F28F2016
:104C1000C2F2004000210170FFE73EE00398006807
:104C2000406B40F2CC21C2F200410860086840F2BB
:104C3000D421C2F200410968884211D3FFE740F253
:104C4000CC20C2F20040006840F2D421C2F2004100
:104C50000968401A40F20001C2F20041088015E0E4
:104C600003980068C06A40F2D421C2F2004109688A
:104C7000401A40F2CC21C2F20041096808440130D8
:104C800040F20001C2F200410880FFE740F28F20AD
:104C9000C2F2004001210170FFE73AE10398007F72
:104CA000022863D1FFE740F29120C2F20040007871
:104CB00000281BD0FFE703980068806B40F2E421D6
:104CC000C2F20041086041F20000C5F602004FF454
:104CD0000061FEF005FA012807D1FFE740F29120BC
:104CE000C2F2004000210170FFE73EE00398006837
:104CF000806B40F2DC21C2F200410860086840F29B
:104D0000E421C2F200410968884211D3FFE740F272
:104D1000DC20C2F20040006840F2E421C2F200410F
:104D20000968401A40F20201C2F20041088015E011
:104D300003980068C06A40F2E421C2F200410968A9
:104D4000401A40F2DC21C2F20041096808440130F7
:104D500040F20201C2F200410880FFE740F29120D8
:104D6000C2F2004001210170FFE7D1E00398007F0B
:104D7000042863D1FFE740F29320C2F2004000789C
:104D800000281BD0FFE703980068C06B40F2F021B9
:104D9000C2F20041086041F20000C5F602004FF483
:104DA0000051FEF09DF9012807D1FFE740F2932062
:104DB000C2F2004000210170FFE73EE00398006866
:104DC000C06B40F2EC21C2F200410860086840F27A
:104DD000F021C2F200410968884211D3FFE740F296
:104DE000EC20C2F20040006840F2F021C2F2004123
:104DF0000968401A40F20401C2F20041088015E03F
:104E000003980068C06A40F2F021C2F200410968CC
:104E1000401A40F2EC21C2F2004109680844013016
:104E200040F20201C2F200410880FFE740F2932005
:104E3000C2F2004001210170FFE768E00398007FA3
:104E4000082863D1FFE740F29420C2F200400078C6
:104E500000281BD0FFE703980068006C40F2F8219F
:104E6000C2F20041086041F20000C5F602004FF4B2
:104E70008041FEF035F9012807D1FFE740F2942088
:104E8000C2F2004000210170FFE73EE00398006895
:104E9000006C40F2F421C2F200410860086840F260
:104EA000F821C2F200410968884211D3FFE740F2BD
:104EB000F420C2F20040006840F2F821C2F2004142
:104EC0000968401A40F20601C2F20041088015E06C
:104ED00003980068C06A40F2F821C2F200410968F4
:104EE000401A40F2F421C2F200410968084401303E
:104EF00040F20601C2F200410880FFE740F2942030
:104F0000C2F2004001210170FFE7FFE7FFE7FFE782
:104F1000FFE7DCE00398006841F60001C4F20001FD
:104F2000884240F0D380FFE70398007F012863D1D7
:104F3000FFE740F29020C2F20040007800281BD02A
:104F4000FFE703980068406B40F2D821C2F20041AD
:104F5000086040F20040C5F602004FF48041FEF0C8
:104F6000BFF8012807D1FFE740F29020C2F20040CD
:104F700000210170FFE73EE003980068406B40F2BB
:104F8000D021C2F200410860086840F2D821C2F284
:104F900000410968884211D3FFE740F2D020C2F2F5
:104FA0000040006840F2D821C2F200410968401A6E
:104FB00040F20801C2F20041086015E00398006861
:104FC000C06A40F2D821C2F200410968401A40F29A
:104FD000D021C2F2004109680844013040F20801C2
:104FE000C2F200410860FFE740F29020C2F20040A8
:104FF00001210170FFE768E00398007F022863D178
:10500000FFE740F29220C2F20040007800281BD057
:10501000FFE703980068806B40F2E821C2F200418C
:10502000086040F20040C5F602004FF40041FEF077
:1050300057F8012807D1FFE740F29220C2F2004062
:1050400000210170FFE73EE003980068806B40F2AA
:10505000E021C2F200410860086840F2E821C2F293
:1050600000410968884211D3FFE740F2E020C2F214
:105070000040006840F2E821C2F200410968401A8D
:1050800040F20C01C2F20041086015E0039800688C
:10509000C06A40F2E821C2F200410968401A40F2B9
:1050A000E021C2F2004109680844013040F20C01DD
:1050B000C2F200410860FFE740F29220C2F20040D5
:1050C00001210170FFE7FFE7FFE7FFE7FFE740F29D
:1050D0001000C2F20040018800EE101AB8EEC00ABB
:1050E00040F20001C2F20041098801EE101AB8EE48
:1050F000C11A9FED5C2A21EE021A9FED5B3A00EE89
:10510000031ABDEEC10A10EE101A0180418800EEAC
:10511000101AB8EEC00A40F20201C2F2004109883A
:1051200001EE101AB8EEC11A21EE021A00EE031AAF
:10513000BDEEC10A10EE101A4180818800EE101AEF
:10514000B8EEC00A40F20401C2F20041098801EE43
:10515000101AB8EEC11A21EE021A00EE031ABDEEC3
:10516000C10A10EE101A8180C18800EE101AB8EE44
:10517000C00A40F20601C2F20041098801EE101A8D
:10518000B8EEC11A21EE021A00EE031ABDEEC10AF2
:1051900010EE101AC180018900EE101AB8EEC00A94
:1051A00040F20801C2F2004191ED001AB8EE411A36
:1051B00021EE021A00EE031ABDEEC10A10EE101A1B
:1051C0000181418900EE101AB8EEC00A40F20C01CC
:1051D000C2F2004191ED001AB8EE411A21EE021A16
:1051E00000EE031ABDEEC10A10EE101A4181002034
:1051F0000290FFE70298052831DCFFE7029840F2B1
:105200001001C2F2004131F81000B0F5FA7F0ADA5D
:10521000FFE7029840F21001C2F200414FF4FA7227
:1052200021F8102016E0029840F21001C2F200416D
:1052300031F8100040F6C51188420ADBFFE70298FA
:1052400040F21001C2F2004140F6C41221F81020D1
:10525000FFE7FFE7FFE7029801300290CAE704B0DA
:1052600080BD00BFCCCC4C3ECDCC4C3F00000000FC
:1052700080B584B00146029002980028019104D1C3
:10528000FFE701208DF80F0049E0029890F83D00FB
:10529000002808D1FFE70298002180F83C1002980E
:1052A000FFF0EAFEFFE70298022180F83D10029825
:1052B00050F8041B00900846009901F1D1FF0298B4
:1052C000012180F84810FFE70298012180F83E1084
:1052D000029880F83F10029880F84010029880F8F9
:1052E0004110029880F84210029880F84310FFE7BE
:1052F000FFE70298012180F84410029880F84510D9
:10530000029880F84610029880F84710FFE702984C
:10531000012180F83D1000208DF80F00FFE79DF877
:105320000F0004B080BD000080B598B00A46034667
:1053300016901591159800281292119305D1FFE748
:10534000169890F83E00109034E01598042805D186
:10535000FFE7169890F83F000F9028E0159808286E
:1053600005D1FFE7169890F840000E901CE01598C4
:105370000C2805D1FFE7169890F841000D9010E039
:105380001598102805D1FFE7169890F842000C9068
:1053900004E0169890F843000C90FFE70C980D90ED
:1053A000FFE70D980E90FFE70E980F90FFE70F981C
:1053B0001090FFE710988DF84F001598002805D140
:1053C000FFE7169890F844000B901CE0159804280D
:1053D00005D1FFE7169890F845000A9010E015985F
:1053E000082805D1FFE7169890F84600099004E0D8
:1053F000169890F847000990FFE709980A90FFE790
:105400000A980B90FFE70B988DF84E009DF84F001F
:10541000012805D1FFE79DF84E00012804D0FFE7E1
:1054200001208DF85F00FBE01598002805D1FFE70B
:105430001698022180F83E1039E01598042806D10C
:10544000FFE71698022180F83F1008912CE015988C
:10545000082806D1FFE71698022180F8401007912E
:105460001FE015980C2806D1FFE71698022180F856
:105470004110069112E01598102806D1FFE7169802
:10548000022180F84210059105E01698022180F86B
:1054900043100591FFE705980690FFE706980790EF
:1054A000FFE707980890FFE708980490FFE7159832
:1054B000002805D1FFE71698022180F844101FE06C
:1054C0001598042806D1FFE71698022180F84510A8
:1054D000039112E01598082806D1FFE716980221DB
:1054E00080F84610029105E01698022180F84710D6
:1054F0000291FFE702980390FFE703980190FFE70E
:1055000015980C28009025D80099DFE801F00723B2
:1055100023230E232323152323231C00169800681E
:10552000C16841F00201C16015E016980068C168C9
:1055300041F00401C1600EE016980068C16841F0B6
:105540000801C16007E016980068C16841F01001C9
:10555000C16000E0FFE7169800681599012201F18B
:1055600053FF169800680021C4F20101884233D02D
:10557000FFE716980068B0F1804F2DD0FFE716982E
:10558000006840F20041C4F20001884224D0FFE7E5
:105590001698006840F60001C4F2000188421BD052
:1055A000FFE71698006840F60041C4F20001884207
:1055B00012D0FFE71698006840F20041C4F20101E2
:1055C000884209D0FFE71698006841F60001C4F24E
:1055D0000001884219D1FFE716980068806807210A
:1055E000C0F2010108401490149806280CD0FFE77F
:1055F0001498B0F5803F07D0FFE71698006801685F
:1056000041F001010160FFE706E0169800680168BB
:1056100041F001010160FFE700208DF85F00FFE726
:105620009DF85F0018B080BD80B590B001460F9026
:1056300000200E900D900C900B900A900F9800682F
:10564000B0F1804F059120D1FFE7FFE744F2E04041
:10565000C5F60200016841F001010160006800F038
:105660000100099009980490FFE70F200A9002209A
:105670000B9000200C900D9001200E900020C5F69C
:1056800002000AA9FDF048FB7FE00F98006840F295
:105690000041C4F20001884220D1FFE7FFE744F255
:1056A000E040C5F60200016841F0020101600068B7
:1056B00000F00200089008980390FFE710200A907D
:1056C00002200B9000210C910D910E9040F20040B1
:1056D000C5F602000AA9FDF01FFB55E00F9800680F
:1056E00040F60001C4F20001884221D1FFE7FFE744
:1056F00044F2E040C5F60200016841F00801016093
:10570000006800F00800079007980290FFE74FF448
:1057100070400A9002200B9000210C910D910E9088
:1057200040F60040C5F602000AA9FDF0F5FA2AE0AD
:105730000F98006844F20001C4F20101884221D1AF
:10574000FFE7FFE744F2E040C5F60200016841F0E0
:1057500010010160006800F01000069006980190AA
:10576000FFE760200A9002200B9000200C900D9023
:1057700004200E9041F20000C5F602000AA9FDF0D7
:10578000CBFAFFE7FFE7FFE7FFE710B080BD0000BF
:1057900082B001460190009102B070470000000005
:1057A00082B001460190009102B0704700000000F5
:1057B00080B592B00A46034610900F910F980028CA
:1057C0000D920C9305D1FFE7109890F83E000B90D6
:1057D00034E00F98042805D1FFE7109890F83F00B7
:1057E0000A9028E00F98082805D1FFE7109890F854
:1057F000400009901CE00F980C2805D1FFE7109895
:1058000090F84100089010E00F98102805D1FFE7AC
:10581000109890F84200079004E0109890F8430028
:105820000790FFE707980890FFE708980990FFE7BF
:1058300009980A90FFE70A980B90FFE70B98012858
:1058400004D0FFE701208DF84700EBE00F98002817
:1058500005D1FFE71098022180F83E1039E00F983B
:10586000042806D1FFE71098022180F83F10069126
:105870002CE00F98082806D1FFE71098022180F845
:10588000401005911FE00F980C2806D1FFE71098F3
:10589000022180F84110049112E00F98102806D1DF
:1058A000FFE71098022180F84210039105E010985C
:1058B000022180F843100391FFE703980490FFE76B
:1058C00004980590FFE705980690FFE70698029078
:1058D000FFE7109800680F990122019201F194FDF1
:1058E0001098006801990022C4F2010290420091D0
:1058F0002DD0FFE710980068012140F20042C4F269
:1059000001029042009122D0FFE710980068012127
:1059100044F20002C4F201029042009117D0FFE766
:1059200010980068012144F20042C4F20102904242
:1059300000910CD0FFE7109800684BF60001CBF601
:10594000FE710844B0FA80F040090090FFE700982B
:10595000C007002807D0FFE710980068416C41F4A9
:1059600000414164FFE7109800680021C4F2010182
:10597000884233D0FFE710980068B0F1804F2DD0F7
:10598000FFE71098006840F20041C4F2000188422D
:1059900024D0FFE71098006840F60001C4F200012F
:1059A00088421BD0FFE71098006840F60041C4F21F
:1059B0000001884212D0FFE71098006840F20041D1
:1059C000C4F20101884209D0FFE71098006841F64F
:1059D0000001C4F20001884219D1FFE71098006865
:1059E00080680721C0F2010108400E900E98062839
:1059F0000CD0FFE70E98B0F5803F07D0FFE7109876
:105A00000068016841F001010160FFE706E01098BD
:105A10000068016841F001010160FFE700208DF896
:105A20004700FFE79DF8470012B080BD000000006E
:105A300082B001460190009102B070470000000062
:105A400080B586B00A460346049003910192009304
:105A5000FFE7049890F88000012804D1FFE70220B6
:105A60008DF8170032E00498012180F88010FFE7DC
:105A7000FFE704982421C0F88410049800680068A7
:105A8000029004980068016821F001010160049807
:105A90000068806820F06040039908430499096811
:105AA0008860049802F138F802980499096808603F
:105AB00004982021C0F88410FFE70498002180F8A2
:105AC0008010FFE700208DF81700FFE79DF8170012
:105AD00006B080BD0000000082B001460190009138
